:100000000208F2020B0815221522E4F50DAF17EFD6
:1000100064E17018E518547FA822F6E6FF651060C9
:1000200006EF6003020290750E03801DAF17EF64A8
:100030002D702BE518547FA822F6E6FF65106006A8
:10004000EF6003020290750E01E518C413131354F8
:1000500001F513E519540725E04213020290E51754
:1000600024B570030201AA24F170030202902497C0
:10007000603624F170030202882469600302028D55
:10008000E518547FA822F6E6FF65106006EF6003CE
:10009000020290E50B6008120BF4E4F50B800312EA
:1000A000097E750E02020290E50E640360030201F0
:1000B00065E509644B600302015874012508F58267
:1000C000E43400AF82A822F608A607A822E6FE08BC
:1000D000E6FFF5828E83E518F0A3E519F08F828E96
:1000E00083A3A3E51AF08F828E83A3A3A3E51BF05D
:1000F0008F828E83E5822404F582E43583F583E5DF
:100100001CF08F828E83E5822405F582E43583F529
:1001100083E51DF08F828E83E5822406F582E43527
:1001200083F583E51EF08F828E83E5822407F582B6
:10013000E43583F583E51FF01209FD74082508F501
:1001400008C39515E495144009751101E4F50B7584
:100150000D017509C30202727F017E00120BA51208
:1001600009FD020272900003E518F0A3E519F0A35F
:10017000E51AF0A3E51BF0A3E51CF0A3E51DF0A331
:10018000E51EF07509C3E4F508750F01AF18EF64BB
:1001900021600AAF19EF64096003750D011209FDB2
:1001A000AF1E7514008F15020290E50E6403600304
:1001B000020290AF0AD3EF9404748094805003023B
:1001C0000277E50964C3600302026874012508F53B
:1001D00082E43400AF82A822F608A607A822E6FE31
:1001E00008E6FFF5828E83E518F0A3E519F08F820B
:1001F0008E83A3A3E51AF08F828E83A3A3A3E51BAE
:10020000F08F828E83E5822404F582E43583F583C2
:10021000E51CF08F828E83E5822405F582E4358328
:10022000F583E51DF08F828E83E5822406F582E456
:100230003583F583E51EF08F828E83E5822407F5F2
:1002400082E43583F583E51FF01209FD7408250863
:10025000F508C39515E495144009751101E4F50BF3
:10026000750D0175094B800A7F017E00120BA512E6
:1002700009FDE4F50F8019E4F50B7F01FE120BA5D3
:10028000E4F50E1209FD80087512018003E4F50EF5
:10029000052205222278069000FCA90BE013400DF0
:1002A00063B0037806A31204050000801912040548
:1002B000A30000D81100000063B003780612040503
:1002C00000000000000013400D63B0037806120424
:1002D000050000008019120405000000D81100007C
:1002E0000063B0037806120405000000000000134C
:1002F000400D63B003780612040500000080191257
:100300000405000000D81100000063B00378061255
:10031000040500000000000013400D63B0037806E0
:100320001204050000008019120405000000D81115
:1003300000000063B003780612040500000000000E
:100340000013400D63B0037806120405000000801E
:1003500019120405000000D81100000063B00378F2
:100360000612040500000000000013400D63B003F6
:100370007806120405000000801912040500000030
:10038000D81100000063B0037806120405000000D5
:1003900000000013400D63B003780612040500004E
:1003A000008019120405000000D81100000063B09D
:1003B00003780612040500000000000013401163DA
:1003C000B0037806E0000000000000D93500803856
:1003D000D91612040500D83000000063B003780677
:1003E0001204050000008020E0000000D814000086
:1003F0000000000000000063B0037806120405024C
:10040000029D02029D000022000053B0FC12040570
:1004100012040512040500000000000000000000A6
:100420000043B0012274090000000000001470F7BE
:10043000000000000000007B067A017916780C7736
:1004400080020465E5B05403605F6A1313F733C29A
:10045000E1FA00500B000000DB0B1205A702046557
:100460007B0602046500E5B05403603D6AC2E213F6
:10047000FA09E8603400500A0000DB0A1205A702FE
:1004800004867B060000E5B05403601D6AC2E213D7
:10049000FA0000500D0000000000DB331205A70237
:1004A00004CF7B0600000204CF740DC398F50A1236
:1004B0000C59E50D550C700122C289D2AF750C00A4
:1004C000D0E0D0E0900B49C082C08375D00032E507
:1004D000B0540360D46AC2E213FA0000500D000069
:1004E000000000DB0D1205A70204F27B06000000ED
:1004F0000000E5B0540360B16AC2E213FA00005094
:100500000D0000000000DB0D1205A70205157B069B
:100510000000000000E5B0540360406AC2E213FA34
:100520000000500D0000000000DB0D1205A70205C1
:10053000387B060000000000E5B05403601D6AC26D
:10054000E213FA0000500D0000000000DB3312053A
:10055000A70205817B060000020581740DC398F592
:100560000A120C59E50D550C700122C289D2AF75E3
:100570000C00D0E0D0E0900B49C082C08375D00061
:1005800032E5B0540360D46AC2E213FA1800501086
:100590000000DB090000001205A702044402044425
:1005A0007B0600000204447B0600EAB2E0FA000089
:1005B00000000022E50F640160030206CAF50F90F7
:1005C0000003E064806003020666A3E06406600343
:1005D00002065E900006E024FE601514602E2402E0
:1005E00060030206CA7D127BFF7A0C795C0206C7A3
:1005F000900009E0C3941B748094805004E0FD8057
:10060000027D1B7BFF7A0C79B40206C7900005E0DF
:10061000700A7D047BFF7A0C79CF8034900005E06E
:100620006401700A7D167BFF7A0C79D380229000DA
:1006300005E06402700A7D1A7BFF7A0C79E980106C
:10064000900005E0640370127D167BFF7A0D79033C
:10065000120710900000E0FF802D7F4B8029900052
:1006600004E07066804C900003E07020A3E024F763
:10067000601324047054AF107F4B120A7990000568
:10068000E0F51080457F4B120A79803E900003E030
:1006900064817010A3E0640670307D467BFF7A0CA5
:1006A000796E8023900003E06421700BA3E0640A5C
:1006B0007018120C2D8013900003E064A1700B7D64
:1006C000087BFF7A0D7919120710E5116041E4F5F6
:1006D000127F4B120A799000FBE0900108F0E4F5DC
:1006E00011F50FE5127015900108E0FF9000FBE096
:1006F000C39FD394057480948040E822AF151522DF
:10070000A822A6077B017A007901AF13120B882279
:100710001522A822A605152215221522A822A60315
:1007200008A60208A60115221522750E029000FCEB
:100730007480F0900000744BF0E5222405F8E6FF89
:100740007003020841900000E0FE9000FDF0EE64AE
:100750004B900000700574C3F08003744BF0C3EF3E
:100760009408748094804053A82208E4F6A82208D4
:10077000E6C3940874809480502CA822080886034D
:1007800008E6FA08E6F9A82208E6FFF58275830074
:10079000120ADBFE74FE2FF582E43400F583EEF0DE
:1007A000A822080680C7A8220808120848750B0C62
:1007B000E5222405F874F826F6805EA82208760261
:1007C000E5222405F8E62402FFE433FEA82208E629
:1007D000C39FEE6480F87480985028A82208088689
:1007E00003080806E618860270010614F9120AC208
:1007F000FFA82208E624FCF582E43400F583EFF03C
:100800000680BDE5222405F8E6FF120854E52224FF
:1008100005F8E62404F50BE4F69000FBE0A822F6C8
:10082000E50B7003020739E50E64027011A82290EF
:1008300000FBE0C396D394057480948040E2E4F515
:100840000BE5222406F522227408080826F618E48F
:1008500036F67F081522A822A60715221522152292
:10086000A82274FFF608F6A82208087602E52224DA
:1008700003F8E616603FA8220808E624FCF582E4A7
:100880003400F583E0FFA822E6FC08E6FDEF6D25C5
:10089000E0FFE433FE74212FF582740D3EF583EC06
:1008A000FFE493FE7401936FA822A60608F6A8221F
:1008B00008080680B8A822E6FE08E6F4FFEEF4A8D1
:1008C00022F608A607A822E6FE08E6FDA8220808E8
:1008D000E6FC24FCF582E43400F583EDF0EEFF74D1
:1008E000FD2CF582E43400F583EFF0E5222404F5D5
:1008F0002222787FE4F6D8FD758122020939020CA4
:100900000CE493A3F8E493A34003F68001F208DF1C
:10091000F48029E493A3F85407240CC8C333C454C7
:100920000F4420C8834004F456800146F6DFE4807B
:100930000B0102040810204080900B6AE47E0193B2
:1009400060BCA3FF543F30E509541FFEE493A3604D
:10095000010ECF54C025E060A840B8E493A3FAE4A8
:1009600093A3F8E493A3C8C582C8CAC583CAF0A3F9
:10097000C8C582C8CAC583CADFE9DEE780BE43B204
:100980000353B1FC1209F163B0031209F163B00320
:100990001209F163B0031209F163B0031209F163A4
:1009A000B0031209F163B0031209F163B003120935
:1009B000F11209F10063B0031209F11209F10063A9
:1009C000B0031209F11209F11209F1000063B0033A
:1009D0001209F11209F10063B0031209F153B0FCDE
:1009E0001209F11209F10043B00153B2FC43B10303
:1009F0002200000000000000000000002243B203BB
:100A000053B1FC63B003120A6D63B003120A6D6345
:100A1000B003120A6D63B003120A6D63B003120AC9
:100A20006D63B003120A6D63B003120A6D120A6D92
:100A30000063B003120A6D120A6D0063B003120A5C
:100A40006D63B003120A6D120A6D0063B003120ADF
:100A50006D120A6D120A6D000053B0FC120A6D127D
:100A60000A6D0043B00153B2FC43B1032200000001
:100A70000000000000000000221522A822A6071591
:100A800022750E029000FC7480F0A82208E6A3F004
:100A9000E4A3F0A3F0750B049000FBE0A822F6E5B8
:100AA0000B601AE50E64027011A8229000FBE0C3EF
:100AB00096D394057480948040E5E4F50B052205F7
:100AC0002222BB010689828A83E0225002E722BBF0
:100AD000FE02E32289828A83E49322BB010CE58231
:100AE00029F582E5833AF583E0225006E92582F86C
:100AF000E622BBFE06E92582F8E222E58229F5829C
:100B0000E5833AF583E49322C0E0C0F0C083C0825D
:100B1000C0D075D000C000C001C002C003C004C076
:100B200005C006C007C2AF120425C289D2AFD007E4
:100B3000D006D005D004D003D002D001D000D0D050
:100B4000D082D083D0F0D0E0321205B4D007D006E6
:100B5000D005D004D003D002D001D000D0D0D082B4
:100B6000D083D0F0D0E0750C0122010B00010A0007
:100B7000010C01010D014100FB00080E0000000006
:100B8000000000FF01080000152215221522A822EE
:100B9000A60308A60208A6011522A822A607E52298
:100BA0002405F52222EF1FAC0670011E4C601200D6
:100BB00000000000000000000000000000000080B5
:100BC000E422ED30E005EF42B28004EFF452B2EDE2
:100BD00030E104EF42B122EFF452B122AB07AA0692
:100BE000EB1BAE0270011A4E60097FE77E03120B09
:100BF000A580ED22E5B054FC4401F5B043B20353A7
:100C0000B1FC12029553B2FC43B10322120C477F90
:100C1000327E00120BDC120C5343870180FBE5B0DF
:100C200054FC4401F5B07D027F07020BC29000FC2A
:100C30007480F0A3741EF0750B022243B80143B711
:100C400001D28843A88122C2A853B0FC7D017F0352
:100C5000020BC2120C1E020C3B0200061201100114
:100C600000000008341278561290010203010501B9
:100C70000900A101150026FF007508850195F809F6
:100C800000810285029507090091028503950F09ED
:100C90000091028504951F090091028505953F0981
:100CA0000091028506957F09009102850795F70955
:100CB000009102C009021B000101008032090400FA
:100CC0000000030000000921010100012246000488
:100CD00003090416035400680061006E00680020D8
:100CE000005400F9006E0067001A035300540043DB
:100CF00000380046002000550053004200480049DB
:100D00000044001603320031002D00300033002D66
:100D10000032003000310039000000000000000007
:100D2000000000C0C1C1810140C30103C00280C2F4
:100D300041C60106C00780C7410500C5C1C4810482
:100D400040CC010CC00D80CD410F00CFC1CE810E33
:100D5000400A00CAC1CB810B40C90109C00880C844
:100D600041D80118C01980D9411B00DBC1DA811AB2
:100D7000401E00DEC1DF811F40DD011DC01C80DC84
:100D8000411400D4C1D5811540D70117C01680D6B3
:100D900041D20112C01380D3411100D1C1D08110C2
:100DA00040F00130C03180F1413300F3C1F28132B3
:100DB000403600F6C1F7813740F50135C03480F484
:100DC000413C00FCC1FD813D40FF013FC03E80FE33
:100DD00041FA013AC03B80FB413900F9C1F8813842
:100DE000402800E8C1E9812940EB012BC02A80EAB4
:100DF00041EE012EC02F80EF412D00EDC1EC812C82
:100E000040E40124C02580E5412700E7C1E68126B2
:100E1000402200E2C1E3812340E10121C02080E0C3
:100E200041A00160C06180A1416300A3C1A28162B1
:100E3000406600A6C1A7816740A50165C06480A483
:100E4000416C00ACC1AD816D40AF016FC06E80AE32
:100E500041AA016AC06B80AB416900A9C1A8816841
:100E6000407800B8C1B9817940BB017BC07A80BAB3
:100E700041BE017EC07F80BF417D00BDC1BC817C81
:100E800040B40174C07580B5417700B7C1B68176B2
:100E9000407200B2C1B3817340B10171C07080B0C3
:100EA00041500090C191815140930153C0528092B2
:100EB00041960156C057809741550095C194815481
:100EC000409C015CC05D809D415F009FC19E815E32
:100ED000405A009AC19B815B40990159C058809843
:100EE00041880148C0498089414B008BC18A814AB1
:100EF000404E008EC18F814F408D014DC04C808C83
:100F000041440084C185814540870147C0468086B1
:100F100041820142C043808341410081C1808140C0
:010F20004090
:00000001FF
