:1000000002092C020B84E4F50DAF18EF64E17016C1
:10001000E519547FF52765106007E52760030202A4
:1000200028750E03801BAF18EF642D7027E5195457
:100030007FF52765106007E5276003020228750E2B
:1000400001E519C41313135401F513E51A540725D8
:10005000E0421322E51824B5700302016F24F17009
:10006000030202282497603224F170030202212443
:10007000696003020225E519547FF52765106007C2
:10008000E5276003020228E50B6008120C52E4F534
:100090000B80031209B8750E0222E50E640360039B
:1000A000020131E509644B707B74012508F9E434E1
:1000B00000752701F5288929AB27FAE519120AF9F5
:1000C000AB27AA28A929900001E51A120B0B900072
:1000D00002E51B120B0B900003E51C120B0B9000AA
:1000E00004E51D120B0B900005E51E120B0B120A06
:1000F00037AB27AA28A929900006E51F120B0B9001
:100100000007E520120B0B74082508F508C39516A7
:10011000E495154009751101E4F50B750D0175099C
:10012000C30202117F017E00120C03120A37020281
:1001300011E50E640160030202289000FDE519F04C
:10014000A3E51AF0A3E51BF0A3E51CF0A3E51DF061
:10015000A3E51EF0A3E51FF0120A37AF1F751500C7
:100160008F167509C3E4F508750F01750D0122E5B9
:100170000E64036003020228AF0AD3EF9404748074
:1001800094805003020215E50964C3707A74012556
:1001900008F9E43400752701F5288929AB27FAE529
:1001A00019120AF9AB27AA28A929900001E51A1209
:1001B0000B0B900002E51B120B0B900003E51C12C9
:1001C0000B0B900004E51D120B0B900005E51E12B1
:1001D0000B0B120A37AB27AA28A929900006E51FA6
:1001E000120B0B900007E520120B0B74082508F585
:1001F00008C39516E495154009751101E4F50B75D2
:100200000D0175094B800A7F017E00120C03120A52
:1002100037E4F50F22E4F50B7F01FE120C03020A0E
:100220003775120122E4F50E227409000000000067
:10023000001470F7000000000000007B067A0179CE
:1002400017780C7780020269E5B05403605F6A1387
:1002500013F733C2E1FA00500B000000DB0B12036E
:10026000E90202697B0602026900E5B05403603DC1
:100270006AC2E213FA09E8603400500A0000DB0A9F
:100280001203E902028A7B060000E5B05403601DF8
:100290006AC2E213FA0000500D0000000000DB52B9
:1002A0001203E90202F27B0600000202F2740D98CA
:1002B000F50A120006E50D550C700122C289D2AF75
:1002C000750C00D0E0D0E09003F6C082C083E581D9
:1002D000240DF581D007D006D005D004D003D0027C
:1002E000D001D000D0D0D082D083D0F0D0E075D073
:1002F0000032E5B0540360B56AC2E213FA00005060
:100300000D0000000000DB0D1203E90203157B065F
:100310000000000000E5B0540360926AC2E213FAE4
:100320000000500D0000000000DB0D1203E9020385
:10033000387B060000000000E5B0540360406AC24C
:10034000E213FA0000500D0000000000DB0D120364
:10035000E902035B7B060000000000E5B054036087
:100360001D6AC2E213FA0000500D0000000000DB1D
:10037000521203E90203C37B0600000203C3740D9B
:1003800098F50A120006E50D550C700122C289D2BB
:10039000AF750C00D0E0D0E09003F6C082C083E5DA
:1003A00081240DF581D007D006D005D004D003D02C
:1003B00002D001D000D0D0D082D083D0F0D0E07570
:1003C000D00032E5B0540360B56AC2E213FA1800F7
:1003D00050100000DB090000001203E9020248028D
:1003E00002487B0600000202487B0600EAB2E0FAFF
:1003F000000000000022E50F64016003020535F5EE
:100400000F9000FDE0648060030204C9A3E064066D
:1004100060030204C1900100E024FE601B146040F0
:1004200024026003020535152BA82B76017D127B73
:10043000FF7A0C79C0020532900103E0C3941B746B
:10044000809480500A152BA82B7601E0FD800815BA
:100450002BA82B76017D1B7BFF7A0D7918020532C4
:100460009000FFE07010152BA82B76017D047BFF18
:100470007A0D798180469000FFE064017010152BA1
:10048000A82B76017D167BFF7A0D7933802E9000A4
:10049000FFE064027010152BA82B76017D1A7BFFFC
:1004A0007A0D794980169000FFE064037038152BAF
:1004B000A82B76017D167BFF7A0D796312071880D1
:1004C000259000FEE0706E804E9000FDE0701CA351
:1004D000E024F760112404705CAF10120B2D900023
:1004E000FFE0F510804F120B2D804A9000FDE06474
:1004F000817016A3E06406703C152BA82B76017D55
:10050000467BFF7A0C79D280299000FDE06421704F
:100510000BA3E0640A701E120C8B80199000FDE0A2
:1005200064A17011152BA82B76017D087BFF7A0D35
:100530007979120718E511604CE4F512120B2D9031
:10054000010BE0FFA3E090011DCFF0A3EFF0E4F575
:1005500011F50FE512702390011DE0FEA3E0FFC32B
:1005600090010CE09FFF90010BE09EFED3EF9405FD
:10057000EE940040DE120BE580D97B017A00790110
:10058000AD16120CB1020BE5780690010DA90BE037
:1005900013400D63B0037806A31206F8000080191B
:1005A0001206F8A30000D81100000063B00378061B
:1005B0001206F800000000000013400D63B003783D
:1005C000061206F800000080191206F8000000D894
:1005D0001100000063B00378061206F80000000066
:1005E000000013400D63B00378061206F800000007
:1005F00080191206F8000000D81100000063B00353
:1006000078061206F800000000000013400D63B0E9
:100610000378061206F800000080191206F80000A0
:1006200000D81100000063B00378061206F800003D
:100630000000000013400D63B00378061206F800B6
:10064000000080191206F8000000D81100000063B5
:10065000B00378061206F800000000000013400DF9
:1006600063B00378061206F800000080191206F83D
:10067000000000D81100000063B00378061206F8ED
:1006800000000000000013400D63B003780612065E
:10069000F800000080191206F8000000D8110000D0
:1006A0000063B00378061206F80000000000001393
:1006B000401163B0037806E0000000000000D93567
:1006C000008038D9161206F800D83000000063B058
:1006D0000378061206F80000008020E0000000D831
:1006E0001400000000000000000063B00378061250
:1006F00006F8020590020590000022000053B0FCAD
:100700001206F81206F81206F800000000000000B9
:100710000000000043B00122152BA82BA605152BC5
:10072000152B152BA82BA60308A60208A601152B2E
:10073000152B152B90010D7480F0750E02E52B24FE
:1007400007F8E66006900000744BF0E52B2406F8ED
:10075000E6FF7E00D3940074809480500302087AF0
:10076000900000E0FD90010EF0ED644B90000070F1
:100770000574C3F08003744BF0C3EF9408EE6480FB
:1007800094804058A82B0808E4F6A82B0808E6C374
:10079000940874809480502FE52B2403F886030876
:1007A000E6FA08E6F9A82B0808E6FFF5827583004B
:1007B000120ACCFE740F2FF582E43401F583EEF0BB
:1007C000A82B08080680C3E52B2403120881750BAB
:1007D0000CE52B2406F874F826F68062A82B08088E
:1007E0007602E52B2406F8E62402FFE433FEA82B6C
:1007F0000808E6C39FEE6480F8748098502AE52BC1
:100800002403F88603080806E61886027001061419
:10081000F9120AB3FFA82B0808E6240DF582E43488
:1008200001F583EFF00680BAE52B2406F8E6FF1207
:10083000088EE52B2406F8E62404F50BE4F6900177
:100840000BE0FEA3E0A82BA60608F6E50B7003025A
:10085000074BE50E64026002801DA82BE6FE08E649
:10086000FFC390010CE09FFF90010BE09EFED3EFD1
:100870009405EE940040D4E4F50BE52B2408F52B09
:1008800022F87408080826F618E436F67F08152BB7
:10089000A82BA607152B152B152BA82B74FFF608D4
:1008A000F6A82B08087602E52B2403F8E616603F2D
:1008B000A82B0808E6240DF582E43401F583E0FF57
:1008C000A82BE6FC08E6FDEF6D25E0FFE433FE749F
:1008D000852FF582740D3EF583ECFFE493FE7401E1
:1008E000936FA82BA60608F6A82B08080680B8A8C0
:1008F0002BE6FE08E6F4FFEEF4A82BF608A607A800
:100900002BE6FE08E6FDA82B0808E6FC240DF58280
:10091000E43401F583EDF0EEFF740E2CF582E4343F
:1009200001F583EFF0E52B2404F52B22787FE4F624
:10093000D8FD75812B020973020C6AE493A3F8E4D5
:1009400093A34003F68001F208DFF48029E493A327
:10095000F85407240CC8C333C4540F4420C8834040
:1009600004F456800146F6DFE4800B01020408100F
:10097000204080900BC5E47E019360BCA3FF543FF0
:1009800030E509541FFEE493A360010ECF54C02547
:10099000E060A840B8E493A3FAE493A3F8E493A337
:1009A000C8C582C8CAC583CAF0A3C8C582C8CAC59B
:1009B00083CADFE9DEE780BE43B20353B1FC120A0B
:1009C0002B63B003120A2B63B003120A2B63B0032C
:1009D000120A2B63B003120A2B63B003120A2B63B3
:1009E000B003120A2B63B003120A2B120A2B006306
:1009F000B003120A2B120A2B0063B003120A2B1247
:100A00000A2B120A2B000063B003120A2B120A2BC6
:100A10000063B003120A2B53B0FC120A2B120A2BEC
:100A20000043B00153B2FC43B103220000000000B8
:100A30000000000000002243B20353B1FC63B00386
:100A4000120AA763B003120AA763B003120AA763CE
:100A5000B003120AA763B003120AA763B003120A15
:100A6000A763B003120AA7120AA70063B003120A11
:100A7000A7120AA70063B003120AA763B003120A01
:100A8000A7120AA70063B003120AA7120AA7120A44
:100A9000A7000053B0FC120AA7120AA70043B00136
:100AA00053B2FC43B103220000000000000000002C
:100AB000000022BB010689828A83E0225002E722DD
:100AC000BBFE02E32289828A83E49322BB010CE508
:100AD0008229F582E5833AF583E0225006E92582F2
:100AE000F8E622BBFE06E92582F8E222E58229F536
:100AF00082E5833AF583E49322BB010689828A83E7
:100B0000F0225002F722BBFE01F322F8BB010DE5F3
:100B10008229F582E5833AF583E8F0225006E9253B
:100B200082C8F622BBFE05E92582C8F222152B15E4
:100B30002B750E0290010D7480F0A3744BF0E4A3AA
:100B4000F0A3F0750B0490010BE0FEA3E0A82BA628
:100B50000608F6E50B6028E50E64026002801DA819
:100B60002BE6FE08E6FFC390010CE09FFF90010B0F
:100B7000E09EFED3EF9405EE940040D7E4F50B051C
:100B80002B052B22C0E0C0F0C083C082C0D075D03E
:100B900000C000C001C002C003C004C005C006C040
:100BA00007C2AF120229C289D2AFD007D006D00542
:100BB000D004D003D002D001D000D0D0D082D083D6
:100BC000D0F0D0E032010B00010A00010C01010D50
:100BD0000142010B0000090E0000000000000000AF
:100BE000FF01080000D007D006D005D004D003D004
:100BF00002D001D000D0D0D082D083D0F0D0E07528
:100C00000C0122EF1FAC0670011E4C6012000000A8
:100C10000000000000000000000000000080E4224E
:100C2000ED30E005EF42B28004EFF452B2ED30E176
:100C300004EF42B122EFF452B122AB07AA06EB1B3C
:100C4000AE0270011A4E60097FE77E03120C03802A
:100C5000ED22E5B054FC4401F5B043B20353B1FCBE
:100C600012058853B2FC43B10322120CA57F327ED9
:100C700000120C3A120CBA43870180FBE5B054FC19
:100C80004401F5B07D027F07020C2090010D7480B5
:100C9000F0A3741EF0750B022243B80143B701D2D2
:100CA0008843A88122C2AF53B0FC7D017F03020CB0
:100CB000208B278A2889298D2A22120C7C020C99E4
:100CC000120110010000000834127856129001023F
:100CD000030105010900A101150026FF0075088523
:100CE0000195F809008102850295070900910285A6
:100CF00003950F090091028504951F090091028553
:100D000005953F090091028506957F0900910285AE
:100D10000795F709009102C009021B00010100803C
:100D20003209040000000300000009210101000154
:100D300022460016035400680061006E006800201F
:100D4000005400F9006E0067001A0353005400437A
:100D5000003800460020005500530042004800497A
:100D60000044001603320031002D00300033002D06
:100D700000320030003100390000000000000000A7
:100D800000040309040000C0C1C1810140C3010384
:100D9000C00280C241C60106C00780C7410500C528
:100DA000C1C4810440CC010CC00D80CD410F00CFE7
:100DB000C1CE810E400A00CAC1CB810B40C90109D6
:100DC000C00880C841D80118C01980D9411B00DB78
:100DD000C1DA811A401E00DEC1DF811F40DD011D26
:100DE000C01C80DC411400D4C1D5811540D7011747
:100DF000C01680D641D20112C01380D3411100D158
:100E0000C1D0811040F00130C03180F1413300F396
:100E1000C1F28132403600F6C1F7813740F5013525
:100E2000C03480F4413C00FCC1FD813D40FF013FE6
:100E3000C03E80FE41FA013AC03B80FB413900F9D7
:100E4000C1F88138402800E8C1E9812940EB012B35
:100E5000C02A80EA41EE012EC02F80EF412D00ED27
:100E6000C1EC812C40E40124C02580E5412700E746
:100E7000C1E68126402200E2C1E3812340E1012155
:100E8000C02080E041A00160C06180A1416300A357
:100E9000C1A28162406600A6C1A7816740A5016525
:100EA000C06480A4416C00ACC1AD816D40AF016FE6
:100EB000C06E80AE41AA016AC06B80AB416900A9D7
:100EC000C1A88168407800B8C1B9817940BB017B75
:100ED000C07A80BA41BE017EC07F80BF417D00BD27
:100EE000C1BC817C40B40174C07580B5417700B746
:100EF000C1B68176407200B2C1B3817340B1017155
:100F0000C07080B041500090C19181514093015315
:100F1000C052809241960156C05780974155009526
:100F2000C1948154409C015CC05D809D415F009FE5
:100F3000C19E815E405A009AC19B815B40990159D4
:100F4000C058809841880148C0498089414B008B36
:100F5000C18A814A404E008EC18F814F408D014D24
:100F6000C04C808C41440084C18581454087014745
:100F7000C046808641820142C04380834141008156
:050F8000C1808140402A
:00000001FF
