:10000000020916020B3A15231523E4F50DAF18EF7C
:1000100064E17018E519547FA823F6E6FF651060C7
:1000200006EF6003020286750E03801DAF18EF64B1
:100030002D702BE519547FA823F6E6FF65106006A6
:10004000EF6003020286750E01E519C41313135401
:1000500001F513E51A540725E04213020286E5185C
:1000600024B570030201A324F170030202862497D1
:10007000603424F1700302027E246960030202836B
:10008000E519547FA823F6E6FF65106006EF6003CC
:10009000020286E50B6009120C28E4F50B020286C9
:1000A0001209A2020286E50E64036003020163E501
:1000B00009644B600302015674012508F582E4349B
:1000C00000AF82A823F608A607A823E6FE08E6FFED
:1000D000F5828E83E519F0A3E51AF08F828E83A353
:1000E000A3E51BF08F828E83A3A3A3E51CF08F8270
:1000F0008E83E5822404F582E43583F583E51DF0E3
:100100008F828E83E5822405F582E43583F583E5CD
:100110001EF08F828E83E5822406F582E43583F516
:1001200083E51FF08F828E83E5822407F582E43514
:1001300083F583E520F0120A2174082508F508C329
:100140009516E495154009751101E4F50B750D013F
:100150007509C302026B7F017E00120BD9120A21BE
:1001600002026BE50E64016003020286900003E563
:1001700019F0A3E51AF0A3E51BF0A3E51CF0A3E535
:100180001DF0A3E51EF0A3E51FF07509C3E4F50813
:10019000750F01750D01120A21AF1F7515008F161D
:1001A000020286E50E64036003020286AF0AD3EF03
:1001B0009404748094805003020270E50964C36063
:1001C0000302026174012508F582E43400AF82A8BD
:1001D00023F608A607A823E6FE08E6FFF5828E832D
:1001E000E519F0A3E51AF08F828E83A3A3E51BF037
:1001F0008F828E83A3A3A3E51CF08F828E83E5827A
:100200002404F582E43583F583E51DF08F828E8327
:10021000E5822405F582E43583F583E51EF08F82BF
:100220008E83E5822406F582E43583F583E51FF0AD
:100230008F828E83E5822407F582E43583F583E59A
:1002400020F0120A2174082508F508C39516E495D4
:10025000154009751101E4F50B750D0175094B8009
:100260000A7F017E00120BD9120A21E4F50F8016D5
:10027000E4F50B7F01FE120BD9120A2180087512DA
:10028000018003E4F50E052305232278069000FD86
:10029000A90BE013400D63B0037806A31203FB0023
:1002A0000080191203FBA30000D81100000063B006
:1002B0000378061203FB00000000000013400D63EA
:1002C000B00378061203FB00000080191203FB0044
:1002D0000000D81100000063B00378061203FB0091
:1002E000000000000013400D63B00378061203FB0A
:1002F00000000080191203FB000000D8110000006C
:1003000063B00378061203FB0000000000001340F6
:100310000D63B00378061203FB000000801912037E
:10032000FB000000D81100000063B0037806120340
:10033000FB00000000000013400D63B003780612BC
:1003400003FB00000080191203FB000000D811001D
:10035000000063B00378061203FB000000000000F9
:1003600013400D63B00378061203FB0000008019F0
:100370001203FB000000D81100000063B0037806F0
:100380001203FB00000000000013400D63B003786F
:10039000061203FB00000080191203FB000000D8C6
:1003A0001100000063B00378061203FB0000000098
:1003B000000013401163B0037806E0000000000065
:1003C00000D935008038D9161203FB00D830000060
:1003D0000063B00378061203FB0000008020E000F9
:1003E0000000D81400000000000000000063B0030B
:1003F00078061203FB02029302029300002200001F
:1004000053B0FC1203FB1203FB1203FB00000000BD
:100410000000000000000043B00122740900000049
:100420000000001470F7000000000000007B067A56
:10043000017917780C778002045BE5B05403605FA4
:100440006A1313F733C2E1FA00500B000000DB0B14
:1004500012059B02045B7B0602045B00E5B05403BB
:10046000603D6AC2E213FA09E8603400500A0000F5
:10047000DB0A12059B02047C7B060000E5B05403F6
:10048000601D6AC2E213FA0000500D000000000077
:10049000DB3212059B0204C47B0600000204C47414
:1004A0000D98F50A120C8DE50D550C700122C289CC
:1004B000D2AF750C00D0E0D0E0900B7BC082C0833F
:1004C00075D00032E5B0540360D56AC2E213FA0079
:1004D00000500D0000000000DB0D12059B0204E738
:1004E0007B060000000000E5B0540360B26AC2E27F
:1004F00013FA0000500D0000000000DB0D12059BF8
:1005000002050A7B060000000000E5B054036040CD
:100510006AC2E213FA0000500D0000000000DB0D7B
:1005200012059B02052D7B060000000000E5B0547B
:1005300003601D6AC2E213FA0000500D00000000C3
:1005400000DB3212059B0205757B06000002057573
:10055000740D98F50A120C8DE50D550C700122C230
:1005600089D2AF750C00D0E0D0E0900B7BC082C088
:100570008375D00032E5B0540360D56AC2E213FA45
:10058000180050100000DB0900000012059B020457
:100590003A02043A7B06000002043A7B0600EAB203
:1005A000E0FA000000000022E50F6401600302068B
:1005B000BEF50F900003E06480600302065AA3E0DA
:1005C00064066003020652900006E024FE601514E3
:1005D000602E240260030206BE7D127BFF7A0C7936
:1005E000900206BB900009E0C3941B748094805075
:1005F00004E0FD80027D1B7BFF7A0C79E80206BBDC
:10060000900005E0700A7D047BFF7A0D79518034FB
:10061000900005E06401700A7D167BFF7A0D790376
:100620008022900005E06402700A7D1A7BFF7A0D3B
:1006300079198010900005E0640370127D167BFF2D
:100640007A0D7933120715900000E0FF802D7F4B63
:100650008029900004E07066804C900003E07020D8
:10066000A3E024F7601324047054AF107F4B120AE8
:100670009D900005E0F51080457F4B120A9D803E5D
:10068000900003E064817010A3E0640670307D4642
:100690007BFF7A0C79A28023900003E06421700B29
:1006A000A3E0640A7018120C618013900003E064E8
:1006B000A1700B7D087BFF7A0D7949120715E511B2
:1006C0006052E4F5127F4B120A9D9000FBE0FFA3FD
:1006D000E0900109CFF0A3EFF0E4F511F50FE5127A
:1006E000701F900109E0FEA3E0FFC39000FCE09FB3
:1006F000FF9000FBE09EFED3EF9405EE940040DEF9
:1007000022AF161523A823A6077B017A007901AF33
:1007100013120BBC221523A823A605152315231598
:1007200023A823A60308A60208A60115231523154E
:10073000239000FD7480F0900000744BF0E52324BA
:1007400006F8E6FF7E00D394007480948050030284
:100750000864900000E0FD9000FEF0ED644B900016
:1007600000700574C3F08003744BF0C3EF9408EE7F
:10077000648094804058A8230808E4F6A823080859
:10078000E6C3940874809480502FE5232403F886F0
:100790000308E6FA08E6F9A8230808E6FFF58275DB
:1007A0008300120B0DFE74FF2FF582E43400F583F5
:1007B000EEF0A82308080680C3E523240312086B83
:1007C000750B0CE5232406F874F826F68062A8233E
:1007D00008087602E5232406F8E62402FFE433FE47
:1007E000A8230808E6C39FEE6480F8748098502A16
:1007F000E5232403F88603080806E618860270013C
:100800000614F9120AF4FFA8230808E624FDF5826D
:10081000E43400F583EFF00680BAE5232406F8E619
:10082000FF120878E5232406F8E62404F50BE4F625
:100830009000FBE0FEA3E0A823A60608F6E50B70F7
:100840000302073DA823E6FE08E6FFC39000FCE094
:100850009FFF9000FBE09EFED3EF9405EE940040D6
:10086000DCE4F50BE5232407F52322F874080808D7
:1008700026F618E436F67F081523A823A6071523C5
:1008800015231523A82374FFF608F6A82308087675
:1008900002E5232403F8E616603FA8230808E624AF
:1008A000FDF582E43400F583E0FFA823E6FC08E6CA
:1008B000FDEF6D25E0FFE433FE74552FF582740DD6
:1008C0003EF583ECFFE493FE7401936FA823A60624
:1008D00008F6A82308080680B8A823E6FE08E6F470
:1008E000FFEEF4A823F608A607A823E6FE08E6FD17
:1008F000A8230808E6FC24FDF582E43400F583ED26
:10090000F0EEFF74FE2CF582E43400F583EFF0E5A1
:10091000232404F52322787FE4F6D8FD7581230291
:10092000095D020C40E493A3F8E493A34003F6802E
:1009300001F208DFF48029E493A3F85407240CC8DB
:10094000C333C4540F4420C8834004F45680014686
:10095000F6DFE4800B0102040810204080900B9C1D
:10096000E47E019360BCA3FF543F30E509541FFEB1
:10097000E493A360010ECF54C025E060A840B8E422
:1009800093A3FAE493A3F8E493A3C8C582C8CAC5A5
:1009900083CAF0A3C8C582C8CAC583CADFE9DEE737
:1009A00080BE43B20353B1FC120A1563B003120AAE
:1009B0001563B003120A1563B003120A1563B0037E
:1009C000120A1563B003120A1563B003120A156305
:1009D000B003120A15120A150063B003120A1512A9
:1009E0000A150063B003120A15120A15120A15003F
:1009F0000063B003120A15120A150063B003120A4D
:100A00001553B0FC120A15120A150043B00153B277
:100A1000FC43B103220000000000000000000000C1
:100A20002243B20353B1FC63B003120A9163B003D3
:100A3000120A9163B003120A9163B003120A916320
:100A4000B003120A9163B003120A9163B003120A51
:100A500091120A910063B003120A91120A91006385
:100A6000B003120A9163B003120A91120A91006353
:100A7000B003120A91120A91120A91000053B0FCBD
:100A8000120A91120A910043B00153B2FC43B10320
:100A9000220000000000000000000000221523A832
:100AA00023A607152315239000FD7480F0A82308C2
:100AB00008E6A3F0E4A3F0A3F0750B049000FBE0BC
:100AC000FEA3E0A823A60608F6E50B6020A823E60F
:100AD000FE08E6FFC39000FCE09FFF9000FBE09E55
:100AE000FED3EF9405EE940040DFE4F50B052305FB
:100AF00023052322BB010689828A83E0225002E774
:100B000022BBFE02E32289828A83E49322BB010C8A
:100B1000E58229F582E5833AF583E0225006E9254E
:100B200082F8E622BBFE06E92582F8E222E5822968
:100B3000F582E5833AF583E49322C0E0C0F0C083F8
:100B4000C082C0D075D000C000C001C002C003C0C8
:100B500004C005C006C007C2AF12041BC289D2AFD1
:100B6000D007D006D005D004D003D002D001D000E9
:100B7000D0D0D082D083D0F0D0E0321205A8D007F8
:100B8000D006D005D004D003D002D001D000D0D000
:100B9000D082D083D0F0D0E0750C0122010B00018F
:100BA0000A00010C01010D014200FB0000090E00CA
:100BB00000000000000000FF0108000015231523BD
:100BC0001523A823A60308A60208A6011523A82317
:100BD000A607E5232405F52322EF1FAC0670011EAE
:100BE0004C60120000000000000000000000000047
:100BF00000000080E422ED30E005EF42B28004EF17
:100C0000F452B2ED30E104EF42B122EFF452B122DE
:100C1000AB07AA06EB1BAE0270011A4E60097FE714
:100C20007E03120BD980ED22E5B054FC4401F5B0EF
:100C300043B20353B1FC12028B53B2FC43B1032203
:100C4000120C7B7F327E00120C10120C874387013E
:100C500080FBE5B054FC4401F5B07D027F07020B38
:100C6000F69000FD7480F0A3741EF0750B02224311
:100C7000B80143B701D28843A88122C2A853B0FC6F
:100C80007D017F03020BF6120C52020C6F0200066C
:100C9000120110010000000834127856129001026F
:100CA000030105010900A101150026FF0075088553
:100CB0000195F809008102850295070900910285D6
:100CC00003950F090091028504951F090091028583
:100CD00005953F090091028506957F0900910285DF
:100CE0000795F709009102C009021B00010100806D
:100CF0003209040000000300000009210101000185
:100D000022460016035400680061006E006800204F
:100D1000005400F9006E0067001A035300540043AA
:100D200000380046002000550053004200480049AA
:100D30000044001603320031002D00300033002D36
:100D400000320030003100390000000000000000D7
:100D500000040309040000C0C1C1810140C30103B4
:100D6000C00280C241C60106C00780C7410500C558
:100D7000C1C4810440CC010CC00D80CD410F00CF17
:100D8000C1CE810E400A00CAC1CB810B40C9010906
:100D9000C00880C841D80118C01980D9411B00DBA8
:100DA000C1DA811A401E00DEC1DF811F40DD011D56
:100DB000C01C80DC411400D4C1D5811540D7011777
:100DC000C01680D641D20112C01380D3411100D188
:100DD000C1D0811040F00130C03180F1413300F3C7
:100DE000C1F28132403600F6C1F7813740F5013556
:100DF000C03480F4413C00FCC1FD813D40FF013F17
:100E0000C03E80FE41FA013AC03B80FB413900F907
:100E1000C1F88138402800E8C1E9812940EB012B65
:100E2000C02A80EA41EE012EC02F80EF412D00ED57
:100E3000C1EC812C40E40124C02580E5412700E776
:100E4000C1E68126402200E2C1E3812340E1012185
:100E5000C02080E041A00160C06180A1416300A387
:100E6000C1A28162406600A6C1A7816740A5016555
:100E7000C06480A4416C00ACC1AD816D40AF016F16
:100E8000C06E80AE41AA016AC06B80AB416900A907
:100E9000C1A88168407800B8C1B9817940BB017BA5
:100EA000C07A80BA41BE017EC07F80BF417D00BD57
:100EB000C1BC817C40B40174C07580B5417700B776
:100EC000C1B68176407200B2C1B3817340B1017185
:100ED000C07080B041500090C19181514093015346
:100EE000C052809241960156C05780974155009557
:100EF000C1948154409C015CC05D809D415F009F16
:100F0000C19E815E405A009AC19B815B4099015904
:100F1000C058809841880148C0498089414B008B66
:100F2000C18A814A404E008EC18F814F408D014D54
:100F3000C04C808C41440084C18581454087014775
:100F4000C046808641820142C04380834141008186
:050F5000C1808140405A
:00000001FF
