:10000000020939020B6615231523E4F50DAF18EF2D
:1000100064E17018E519547FA823F6E6FF651060C7
:1000200006EF60030202A0750E03801DAF18EF6497
:100030002D702BE519547FA823F6E6FF65106006A6
:10004000EF60030202A0750E01E519C413131354E7
:1000500001F513E51A540725E042130202A0E51842
:1000600024B570030201BD24F170030202A024979D
:10007000603624F170030202982469600302029D35
:10008000E519547FA823F6E6FF65106006EF6003CC
:100090000202A0E50B6008120C54E4F50B80031279
:1000A00009C5750E020202A0E50E64036003020199
:1000B00065E509644B600302015874012508F58267
:1000C000E43400AF82A823F608A607A823E6FE08BA
:1000D000E6FFF5828E83E519F0A3E51AF08F828E94
:1000E00083A3A3E51BF08F828E83A3A3A3E51CF05B
:1000F0008F828E83E5822404F582E43583F583E5DF
:100100001DF08F828E83E5822405F582E43583F528
:1001100083E51EF08F828E83E5822406F582E43526
:1001200083F583E51FF08F828E83E5822407F582B5
:10013000E43583F583E520F0120A4474082508F5B8
:1001400008C39516E495154009751101E4F50B7582
:100150000D017509C30202857F017E00120C051294
:100160000A44020285E50E64016009E50E6402603E
:10017000030202A0900003E519F0A3E51AF0A3E53D
:100180001BF0A3E51CF0A3E51DF0A3E51EF0A3E51D
:100190001FF07509C3E4F508750F01AF19EF64216D
:1001A000700BAF1AEF64097004F50D8003750D0133
:1001B000120A44AF1F7515008F160202A0E50E64E7
:1001C0000360030202A0AF0AD3EF9404748094800A
:1001D000500302028AE50964C3600302027B7401D2
:1001E0002508F582E43400AF82A823F608A607A804
:1001F00023E6FE08E6FFF5828E83E519F0A3E51AF3
:10020000F08F828E83A3A3E51BF08F828E83A3A33E
:10021000A3E51CF08F828E83E5822404F582E43509
:1002200083F583E51DF08F828E83E5822405F582B8
:10023000E43583F583E51EF08F828E83E582240604
:10024000F582E43583F583E51FF08F828E83E582A6
:100250002407F582E43583F583E520F0120A44741F
:10026000082508F508C39516E49515400975110190
:10027000E4F50B750D0175094B800A7F017E0012B4
:100280000C05120A44E4F50F8016E4F50B7F01FE1D
:10029000120C05120A4480087512018003E4F50E61
:1002A000052305232278069000FDA90BE013400DDD
:1002B00063B0037806A31204150000801912041518
:1002C000A30000D81100000063B0037806120415E3
:1002D00000000000000013400D63B0037806120414
:1002E000150000008019120415000000D81100004C
:1002F0000063B0037806120415000000000000132C
:10030000400D63B003780612041500000080191236
:100310000415000000D81100000063B00378061235
:10032000041500000000000013400D63B0037806C0
:100330001204150000008019120415000000D811E5
:1003400000000063B00378061204150000000000EE
:100350000013400D63B003780612041500000080FE
:1003600019120415000000D81100000063B00378D2
:100370000612041500000000000013400D63B003D6
:100380007806120415000000801912041500000000
:10039000D81100000063B0037806120415000000B5
:1003A00000000013400D63B003780612041500002E
:1003B000008019120415000000D81100000063B07D
:1003C00003780612041500000000000013401163BA
:1003D000B0037806E0000000000000D93500803846
:1003E000D91612041500D83000000063B003780657
:1003F0001204150000008020E0000000D814000066
:100400000000000000000063B0037806120415022B
:1004100002AD0202AD000022000053B0FC12041530
:100420001204151204150000000000000000000076
:100430000043B0012274090000000000001470F7AE
:10044000000000000000007B067A017917780C7725
:1004500080020475E5B05403605F6A1313F733C27A
:10046000E1FA00500B000000DB0B1205B502047529
:100470007B0602047500E5B05403603D6AC2E213D6
:10048000FA09E8603400500A0000DB0A1205B502E0
:1004900004967B060000E5B05403601D6AC2E213B7
:1004A000FA0000500D0000000000DB321205B5021A
:1004B00004DE7B0600000204DE740D98F50A120CBF
:1004C000B9E50D550C700122C289D2AF750C00D070
:1004D000E0D0E0900BA7C082C08375D00032E5B0B9
:1004E000540360D56AC2E213FA0000500D00000008
:1004F0000000DB0D1205B50205017B0600000000BF
:1005000000E5B0540360B26AC2E213FA0000500D75
:100510000000000000DB0D1205B50205247B06007B
:1005200000000000E5B0540360406AC2E213FA0024
:1005300000500D0000000000DB0D1205B50205475C
:100540007B060000000000E5B05403601D6AC2E2B3
:1005500013FA0000500D0000000000DB321205B558
:1005600002058F7B06000002058F740D98F50A12B4
:100570000CB9E50D550C700122C289D2AF750C0083
:10058000D0E0D0E0900BA7C082C08375D00032E5E8
:10059000B0540360D56AC2E213FA1800501000008C
:1005A000DB090000001205B50204540204547B0666
:1005B00000000204547B0600EAB2E0FA00000000EA
:1005C0000022E50F640160030206D8F50F900003D6
:1005D000E064806003020674A3E064066003020620
:1005E0006C900006E024FE601514602E2402600367
:1005F0000206D87D127BFF7A0C79BC0206D59000EA
:1006000009E0C3941B748094805004E0FD80027D57
:100610001B7BFF7A0D79140206D5900005E0700A65
:100620007D047BFF7A0D797D8034900005E06401C4
:10063000700A7D167BFF7A0D792F8022900005E0ED
:100640006402700A7D1A7BFF7A0D79458010900054
:1006500005E0640370127D167BFF7A0D795F120747
:100660002F900000E0FF802D7F4B8029900004E058
:100670007066804C900003E07020A3E024F76013C4
:1006800024047054AF107F4B120AC0900005E0F5AF
:100690001080457F4B120AC0803E900003E06481C9
:1006A0007010A3E0640670307D467BFF7A0C79CE33
:1006B0008023900003E06421700BA3E0640A7018AB
:1006C000120C8D8013900003E064A1700B7D087BF9
:1006D000FF7A0D797512072FE5116052E4F5127F4C
:1006E0004B120AC09000FBE0FFA3E0900109CFF09D
:1006F000A3EFF0E4F511F50FE512701F900109E08A
:10070000FEA3E0FFC39000FCE09FFF9000FBE09E93
:10071000FED3EF9405EE940040DE22AF161523A819
:1007200023A6077B017A007901AF13120BE822158B
:1007300023A823A605152315231523A823A60308FC
:10074000A60208A601152315231523750E02900095
:10075000FD7480F0900000744BF0E5232406F8E669
:10076000FF7E00D394007480948050030208879029
:100770000000E0FD9000FEF0ED644B90000070057D
:1007800074C3F08003744BF0C3EF9408EE6480945C
:10079000804058A8230808E4F6A8230808E6C39474
:1007A0000874809480502FE5232403F8860308E61C
:1007B000FA08E6F9A8230808E6FFF5827583001217
:1007C0000B39FE74FF2FF582E43400F583EEF0A8B8
:1007D0002308080680C3E523240312088E750B0C3A
:1007E000E5232406F874F826F68062A82308087624
:1007F00002E5232406F8E62402FFE433FEA82308DA
:1008000008E6C39FEE6480F8748098502AE523249C
:1008100003F88603080806E618860270010614F934
:10082000120B20FFA8230808E624FDF582E434001B
:10083000F583EFF00680BAE5232406F8E6FF1208F8
:100840009BE5232406F8E62404F50BE4F69000FB70
:10085000E0FEA3E0A823A60608F6E50B7003020756
:100860005AE50E6402701DA823E6FE08E6FFC39059
:1008700000FCE09FFF9000FBE09EFED3EF9405EEAE
:10088000940040D6E4F50BE5232407F52322F87401
:1008900008080826F618E436F67F081523A823A6CC
:1008A00007152315231523A82374FFF608F6A8239C
:1008B00008087602E5232403F8E616603FA823081B
:1008C00008E624FDF582E43400F583E0FFA823E682
:1008D000FC08E6FDEF6D25E0FFE433FE74812FF5A3
:1008E00082740D3EF583ECFFE493FE7401936FA8D0
:1008F00023A60608F6A82308080680B8A823E6FE63
:1009000008E6F4FFEEF4A823F608A607A823E6FEFF
:1009100008E6FDA8230808E6FC24FDF582E434007F
:10092000F583EDF0EEFF74FE2CF582E43400F583E0
:10093000EFF0E5232404F52322787FE4F6D8FD7553
:100940008123020980020C6CE493A3F8E493A34092
:1009500003F68001F208DFF48029E493A3F854073A
:10096000240CC8C333C4540F4420C8834004F45635
:10097000800146F6DFE4800B01020408102040806D
:10098000900BC8E47E019360BCA3FF543F30E5099F
:10099000541FFEE493A360010ECF54C025E060A86D
:1009A00040B8E493A3FAE493A3F8E493A3C8C58200
:1009B000C8CAC583CAF0A3C8C582C8CAC583CADF6E
:1009C000E9DEE780BE43B20353B1FC120A3863B0DC
:1009D00003120A3863B003120A3863B003120A38EC
:1009E00063B003120A3863B003120A3863B003120B
:1009F0000A3863B003120A38120A380063B00312CF
:100A00000A38120A380063B003120A38120A381280
:100A10000A38000063B003120A38120A380063B0C3
:100A200003120A3853B0FC120A38120A380043B0D5
:100A30000153B2FC43B1032200000000000000009B
:100A40000000002243B20353B1FC63B003120AB4A6
:100A500063B003120AB463B003120AB463B00312A2
:100A60000AB463B003120AB463B003120AB463B0E9
:100A700003120AB4120AB40063B003120AB4120AD1
:100A8000B40063B003120AB463B003120AB4120ACA
:100A9000B40063B003120AB4120AB4120AB400001C
:100AA00053B0FC120AB4120AB40043B00153B2FCB2
:100AB00043B10322000000000000000000000022FB
:100AC0001523A823A60715231523750E029000FDF4
:100AD0007480F0A8230808E6A3F0E4A3F0A3F0755F
:100AE0000B049000FBE0FEA3E0A823A60608F6E5B1
:100AF0000B6026E50E6402701DA823E6FE08E6FFE3
:100B0000C39000FCE09FFF9000FBE09EFED3EF94BB
:100B100005EE940040D9E4F50B05230523052322B7
:100B2000BB010689828A83E0225002E722BBFE02D3
:100B3000E32289828A83E49322BB010CE58229F5B2
:100B400082E5833AF583E0225006E92582F8E62221
:100B5000BBFE06E92582F8E222E58229F582E583DB
:100B60003AF583E49322C0E0C0F0C083C082C0D0D5
:100B700075D000C000C001C002C003C004C005C0E1
:100B800006C007C2AF120435C289D2AFD007D00663
:100B9000D005D004D003D002D001D000D0D0D08274
:100BA000D083D0F0D0E0321205C2D007D006D005F5
:100BB000D004D003D002D001D000D0D0D082D083D6
:100BC000D0F0D0E0750C0122010B00010A00010CED
:100BD00001010D014200FB0000090E0000000000B1
:100BE000000000FF01080000152315231523A8238A
:100BF000A60308A60208A6011523A823A607E52335
:100C00002405F52322EF1FAC0670011E4C60120074
:100C10000000000000000000000000000000008054
:100C2000E422ED30E005EF42B28004EFF452B2ED81
:100C300030E104EF42B122EFF452B122AB07AA0631
:100C4000EB1BAE0270011A4E60097FE77E03120CA7
:100C50000580ED22E5B054FC4401F5B043B20353E6
:100C6000B1FC1202A553B2FC43B10322120CA77FC0
:100C7000327E00120C3C120CB343870180FBE5B0BE
:100C800054FC4401F5B07D027F07020C229000FD68
:100C90007480F0A3741EF0750B022243B80143B7B1
:100CA00001D28843A88122C2A853B0FC7D017F03F2
:100CB000020C22120C7E020C9B0200061201100193
:100CC0000000000834127856129001020301050159
:100CD0000900A101150026FF007508850195F80996
:100CE00000810285029507090091028503950F098D
:100CF0000091028504951F090091028505953F0921
:100D00000091028506957F09009102850795F709F4
:100D1000009102C009021B00010100803209040099
:100D20000000030000000921010100012246001615
:100D3000035400680061006E00680020005400F950
:100D4000006E0067001A0353005400430038004649
:100D5000002000550053004200480049004400169E
:100D600003320031002D00300033002D00320030FE
:100D700000310039000000000000000000040309F9
:100D8000040000C0C1C1810140C30103C00280C290
:100D900041C60106C00780C7410500C5C1C4810422
:100DA00040CC010CC00D80CD410F00CFC1CE810ED3
:100DB000400A00CAC1CB810B40C90109C00880C8E4
:100DC00041D80118C01980D9411B00DBC1DA811A52
:100DD000401E00DEC1DF811F40DD011DC01C80DC24
:100DE000411400D4C1D5811540D70117C01680D653
:100DF00041D20112C01380D3411100D1C1D0811062
:100E000040F00130C03180F1413300F3C1F2813252
:100E1000403600F6C1F7813740F50135C03480F423
:100E2000413C00FCC1FD813D40FF013FC03E80FED2
:100E300041FA013AC03B80FB413900F9C1F88138E1
:100E4000402800E8C1E9812940EB012BC02A80EA53
:100E500041EE012EC02F80EF412D00EDC1EC812C21
:100E600040E40124C02580E5412700E7C1E6812652
:100E7000402200E2C1E3812340E10121C02080E063
:100E800041A00160C06180A1416300A3C1A2816251
:100E9000406600A6C1A7816740A50165C06480A423
:100EA000416C00ACC1AD816D40AF016FC06E80AED2
:100EB00041AA016AC06B80AB416900A9C1A88168E1
:100EC000407800B8C1B9817940BB017BC07A80BA53
:100ED00041BE017EC07F80BF417D00BDC1BC817C21
:100EE00040B40174C07580B5417700B7C1B6817652
:100EF000407200B2C1B3817340B10171C07080B063
:100F000041500090C191815140930153C052809251
:100F100041960156C057809741550095C194815420
:100F2000409C015CC05D809D415F009FC19E815ED1
:100F3000405A009AC19B815B40990159C0588098E2
:100F400041880148C0498089414B008BC18A814A50
:100F5000404E008EC18F814F408D014DC04C808C22
:100F600041440084C185814540870147C046808651
:100F700041820142C043808341410081C180814060
:010F80004030
:00000001FF
