:10000000020921020B5015231523E4F50DAF18EF5B
:1000100064E17018E519547FA823F6E6FF651060C7
:1000200006EF6003020288750E03801DAF18EF64AF
:100030002D702BE519547FA823F6E6FF65106006A6
:10004000EF6003020288750E01E519C413131354FF
:1000500001F513E51A540725E04213020288E5185A
:1000600024B570030201A524F170030202882497CD
:10007000603624F170030202802469600302028565
:10008000E519547FA823F6E6FF65106006EF6003CC
:10009000020288E50B6008120C3BE4F50B800312AA
:1000A00009AD750E02020288E50E640360030201C9
:1000B00065E509644B600302015874012508F58267
:1000C000E43400AF82A823F608A607A823E6FE08BA
:1000D000E6FFF5828E83E519F0A3E51AF08F828E94
:1000E00083A3A3E51BF08F828E83A3A3A3E51CF05B
:1000F0008F828E83E5822404F582E43583F583E5DF
:100100001DF08F828E83E5822405F582E43583F528
:1001100083E51EF08F828E83E5822406F582E43526
:1001200083F583E51FF08F828E83E5822407F582B5
:10013000E43583F583E520F0120A2C74082508F5D0
:1001400008C39516E495154009751101E4F50B7582
:100150000D017509C302026D7F017E00120BEC12C6
:100160000A2C02026DE50E64016003020288900011
:1001700003E519F0A3E51AF0A3E51BF0A3E51CF0D5
:10018000A3E51DF0A3E51EF0A3E51FF07509C3E488
:10019000F508750F01750D01120A2CAF1F751500BA
:1001A0008F16020288E50E64036003020288AF0A1C
:1001B000D3EF9404748094805003020272E50964C2
:1001C000C3600302026374012508F582E43400AFC2
:1001D00082A823F608A607A823E6FE08E6FFF58214
:1001E0008E83E519F0A3E51AF08F828E83A3A3E531
:1001F0001BF08F828E83A3A3A3E51CF08F828E83D6
:10020000E5822404F582E43583F583E51DF08F82D1
:100210008E83E5822405F582E43583F583E51EF0BF
:100220008F828E83E5822406F582E43583F583E5AB
:100230001FF08F828E83E5822407F582E43583F5F3
:1002400083E520F0120A2C74082508F508C39516DA
:10025000E495154009751101E4F50B750D0175095B
:100260004B800A7F017E00120BEC120A2CE4F50F82
:100270008016E4F50B7F01FE120BEC120A2C8008AD
:100280007512018003E4F50E0523052322780690FC
:1002900000FDA90BE013400D63B0037806A3120321
:1002A000FD000080191203FDA30000D8110000001A
:1002B00063B00378061203FD000000000000134045
:1002C0000D63B00378061203FD00000080191203CD
:1002D000FD000000D81100000063B003780612038F
:1002E000FD00000000000013400D63B0037806120B
:1002F00003FD00000080191203FD000000D811006A
:10030000000063B00378061203FD00000000000047
:1003100013400D63B00378061203FD00000080193E
:100320001203FD000000D81100000063B00378063E
:100330001203FD00000000000013400D63B00378BD
:10034000061203FD00000080191203FD000000D812
:100350001100000063B00378061203FD00000000E6
:10036000000013400D63B00378061203FD00000087
:1003700080191203FD000000D81100000063B003D3
:1003800078061203FD00000000000013400D63B06A
:100390000378061203FD00000080191203FD00001F
:1003A00000D81100000063B00378061203FD0000BE
:1003B0000000000013401163B0037806E000000065
:1003C000000000D935008038D9161203FD00D8305E
:1003D00000000063B00378061203FD0000008020D7
:1003E000E0000000D81400000000000000000063DE
:1003F000B00378061203FD02029502029500002266
:10040000000053B0FC1203FD1203FD1203FD0000B7
:1004100000000000000000000043B0012274090049
:1004200000000000001470F7000000000000007BD6
:10043000067A017917780C778002045DE5B05403E1
:10044000605F6A1313F733C2E1FA00500B0000003B
:10045000DB0B12059D02045D7B0602045D00E5B026
:100460005403603D6AC2E213FA09E8603400500A9E
:100470000000DB0A12059D02047E7B060000E5B049
:100480005403601D6AC2E213FA0000500D00000020
:100490000000DB3212059D0204C67B060000020448
:1004A000C6740D98F50A120CA0E50D550C700122CA
:1004B000C289D2AF750C00D0E0D0E09005AAC0820E
:1004C000C08375D00032E5B0540360D56AC2E21330
:1004D000FA0000500D0000000000DB0D12059D0227
:1004E00004E97B060000000000E5B0540360B26A36
:1004F000C2E213FA0000500D0000000000DB0D12F4
:10050000059D02050C7B060000000000E5B05403C9
:1005100060406AC2E213FA0000500D0000000000C3
:10052000DB0D12059D02052F7B060000000000E593
:10053000B05403601D6AC2E213FA0000500D0000BF
:10054000000000DB3212059D0205777B06000002E9
:100550000577740D98F50A120CA0E50D550C700185
:1005600022C289D2AF750C00D0E0D0E09005AAC0BD
:1005700082C08375D00032E5B0540360D56AC2E210
:1005800013FA180050100000DB0900000012059D4E
:1005900002043C02043C7B06000002043C7B060093
:1005A000EAB2E0FA000000000022E50F64016003F7
:1005B0000206C0F50F900003E06480600302065C51
:1005C000A3E064066003020654900006E024FE6087
:1005D0001514602E240260030206C07D127BFF7A90
:1005E0000C79A30206BD900009E0C3941B748094AB
:1005F000805004E0FD80027D1B7BFF7A0C79FB02BA
:1006000006BD900005E0700A7D047BFF7A0D7964D9
:100610008034900005E06401700A7D167BFF7A0D3E
:1006200079168022900005E06402700A7D1A7BFF33
:100630007A0D792C8010900005E0640370127D160D
:100640007BFF7A0D7946120715900000E0FF802DA0
:100650007F4B8029900004E07066804C900003E09E
:100660007020A3E024F7601324047054AF107F4B74
:10067000120AA8900005E0F51080457F4B120AA8E9
:10068000803E900003E064817010A3E06406703047
:100690007D467BFF7A0C79B58023900003E06421CE
:1006A000700BA3E0640A7018120C7480139000039E
:1006B000E064A1700B7D087BFF7A0D795C12071551
:1006C000E511604EE4F5127F4B120AA89000FBE0A2
:1006D000FFA3E0900109CFF0A3EFF0E4F511F50FCF
:1006E000E5127023900109E0FEA3E0FFC39000FC37
:1006F000E09FFF9000FBE09EFED3EF9405EE940098
:1007000040DE120BB180D9AD167B017A007901125F
:100710000BCF020BB11523A823A60515231523150E
:1007200023A823A60308A60208A60115231523154E
:10073000239000FD7480F0750E02900000744BF061
:10074000E5232406F8E6FF7E00D3940074809480AD
:10075000500302086F900000E0FD9000FEF0ED6491
:100760004B900000700574C3F08003744BF0C3EF2E
:100770009408EE648094804058A8230808E4F6A802
:10078000230808E6C3940874809480502FE523243E
:1007900003F8860308E6FA08E6F9A8230808E6FF46
:1007A000F582758300120B23FE74FF2FF582E4346B
:1007B00000F583EEF0A82308080680C3E523240390
:1007C000120876750B0CE5232406F874F826F680DB
:1007D00062A82308087602E5232406F8E62402FF2F
:1007E000E433FEA8230808E6C39FEE6480F8748013
:1007F00098502AE5232403F88603080806E618869D
:100800000270010614F9120B0AFFA8230808E62457
:10081000FDF582E43400F583EFF00680BAE5232489
:1008200006F8E6FF120883E5232406F8E62404F51B
:100830000BE4F69000FBE0FEA3E0A823A60608F672
:10084000E50B7003020740E50E64026002801DA8FC
:1008500023E6FE08E6FFC39000FCE09FFF9000FB4C
:10086000E09EFED3EF9405EE940040D4E4F50BE552
:10087000232407F52322F87408080826F618E4361E
:10088000F67F081523A823A607152315231523A8EB
:100890002374FFF608F6A82308087602E52324034C
:1008A000F8E616603FA8230808E624FDF582E43444
:1008B00000F583E0FFA823E6FC08E6FDEF6D25E0E8
:1008C000FFE433FE74682FF582740D3EF583ECFF70
:1008D000E493FE7401936FA823A60608F6A82308E4
:1008E000080680B8A823E6FE08E6F4FFEEF4A82385
:1008F000F608A607A823E6FE08E6FDA8230808E6F2
:10090000FC24FDF582E43400F583EDF0EEFF74FE87
:100910002CF582E43400F583EFF0E5232404F5237D
:1009200022787FE4F6D8FD758123020968020C5312
:10093000E493A3F8E493A34003F68001F208DFF404
:100940008029E493A3F85407240CC8C333C4540F7C
:100950004420C8834004F456800146F6DFE4800B4F
:100960000102040810204080900B91E47E01936006
:10097000BCA3FF543F30E509541FFEE493A360017C
:100980000ECF54C025E060A840B8E493A3FAE493E6
:10099000A3F8E493A3C8C582C8CAC583CAF0A3C894
:1009A000C582C8CAC583CADFE9DEE780BE43B20399
:1009B00053B1FC120A2063B003120A2063B0031281
:1009C0000A2063B003120A2063B003120A2063B046
:1009D00003120A2063B003120A2063B003120A2034
:1009E000120A200063B003120A20120A200063B02A
:1009F00003120A20120A20120A20000063B0031218
:100A00000A20120A200063B003120A2053B0FC121D
:100A10000A20120A200043B00153B2FC43B1032262
:100A200000000000000000000000002243B2035359
:100A3000B1FC63B003120A9C63B003120A9C63B05A
:100A400003120A9C63B003120A9C63B003120A9C4F
:100A500063B003120A9C63B003120A9C120A9C0042
:100A600063B003120A9C120A9C0063B003120A9C32
:100A700063B003120A9C120A9C0063B003120A9C22
:100A8000120A9C120A9C000053B0FC120A9C120A23
:100A90009C0043B00153B2FC43B1032200000000AC
:100AA00000000000000000221523A823A60715233C
:100AB0001523750E029000FD7480F0A8230808E647
:100AC000A3F0E4A3F0A3F0750B049000FBE0FEA3F9
:100AD000E0A823A60608F6E50B6028E50E64026090
:100AE00002801DA823E6FE08E6FFC39000FCE09FFD
:100AF000FF9000FBE09EFED3EF9405EE940040D7FC
:100B0000E4F50B05230523052322BB010689828A10
:100B100083E0225002E722BBFE02E32289828A831D
:100B2000E49322BB010CE58229F582E5833AF58343
:100B3000E0225006E92582F8E622BBFE06E925827E
:100B4000F8E222E58229F582E5833AF583E49322EF
:100B5000C0E0C0F0C083C082C0D075D000C000C06B
:100B600001C002C003C004C005C006C007C2AF1266
:100B7000041DC289D2AFD007D006D005D004D0035F
:100B8000D002D001D000D0D0D082D083D0F0D0E03D
:100B900032010B00010A00010C01010D014200FBB2
:100BA0000000090E0000000000000000FF01080026
:100BB00000D007D006D005D004D003D002D001D099
:100BC00000D0D0D082D083D0F0D0E0750C012215B7
:100BD00023A823A605152315231523A823A6030858
:100BE000A60208A601E5232404F52322EF1FAC0684
:100BF00070011E4C601200000000000000000000A8
:100C000000000000000080E422ED30E005EF42B279
:100C10008004EFF452B2ED30E104EF42B122EFF480
:100C200052B122AB07AA06EB1BAE0270011A4E604E
:100C3000097FE77E03120BEC80ED22E5B054FC4403
:100C400001F5B043B20353B1FC12028D53B2FC4321
:100C5000B10322120C8E7F327E00120C23120C9AEA
:100C600043870180FBE5B054FC4401F5B07D027F71
:100C700007020C099000FD7480F0A3741EF0750B40
:100C8000022243B80143B701D28843A88122C2AFF0
:100C900053B0FC7D017F03020C09120C65020C822B
:100CA00002000612011001000000083412785612EA
:100CB000900102030105010900A101150026FF00B2
:100CC0007508850195F809008102850295070900DC
:100CD00091028503950F090091028504951F090073
:100CE00091028505953F090091028506957F0900CF
:100CF0009102850795F709009102C009021B0001C6
:100D000001008032090400000003000000092101F5
:100D100001000122460016035400680061006E00C5
:100D2000680020005400F9006E0067001A035300A9
:100D30005400430038004600200055005300420094
:100D40004800490044001603320031002D003000F5
:100D500033002D0032003000310039000000000067
:100D600000000000040309040000C0C1C18101406B
:100D7000C30103C00280C241C60106C00780C7414B
:100D80000500C5C1C4810440CC010CC00D80CD411B
:100D90000F00CFC1CE810E400A00CAC1CB810B40EB
:100DA000C90109C00880C841D80118C01980D941BB
:100DB0001B00DBC1DA811A401E00DEC1DF811F404B
:100DC000DD011DC01C80DC411400D4C1D58115405B
:100DD000D70117C01680D641D20112C01380D3416B
:100DE0001100D1C1D0811040F00130C03180F141FB
:100DF0003300F3C1F28132403600F6C1F78137404B
:100E0000F50135C03480F4413C00FCC1FD813D401A
:100E1000FF013FC03E80FE41FA013AC03B80FB41EA
:100E20003900F9C1F88138402800E8C1E98129403A
:100E3000EB012BC02A80EA41EE012EC02F80EF414A
:100E40002D00EDC1EC812C40E40124C02580E5415A
:100E50002700E7C1E68126402200E2C1E38123406A
:100E6000E10121C02080E041A00160C06180A1417A
:100E70006300A3C1A28162406600A6C1A78167404A
:100E8000A50165C06480A4416C00ACC1AD816D401A
:100E9000AF016FC06E80AE41AA016AC06B80AB41EA
:100EA0006900A9C1A88168407800B8C1B9817940BA
:100EB000BB017BC07A80BA41BE017EC07F80BF414A
:100EC0007D00BDC1BC817C40B40174C07580B5415A
:100ED0007700B7C1B68176407200B2C1B38173406A
:100EE000B10171C07080B041500090C191815140FA
:100EF000930153C052809241960156C0578097414A
:100F0000550095C1948154409C015CC05D809D4119
:100F10005F009FC19E815E405A009AC19B815B40E9
:100F2000990159C058809841880148C04980894139
:100F30004B008BC18A814A404E008EC18F814F4049
:100F40008D014DC04C808C41440084C18581454059
:100F5000870147C046808641820142C04380834169
:080F6000410081C18081404085
:00000001FF
