:1000000002090D020B2315231523E4F50DAF18EF9C
:1000100064E17018E519547FA823F6E6FF651060C7
:1000200006EF60030202A3750E03801DAF18EF6494
:100030002D702BE519547FA823F6E6FF65106006A6
:10004000EF60030202A3750E01E519C413131354E4
:1000500001F513E51A540725E042130202A3E5183F
:1000600024B570030201BD24F170030202A324979A
:10007000603624F1700302029B246960030202A02F
:10008000E519547FA823F6E6FF65106006EF6003CC
:100090000202A3E50B6008120C10E4F50B800312BA
:1000A0000999750E020202A3E50E640360030201C2
:1000B00065E509644B600302015874012508F58267
:1000C000E43400AF82A823F608A607A823E6FE08BA
:1000D000E6FFF5828E83E519F0A3E51AF08F828E94
:1000E00083A3A3E51BF08F828E83A3A3A3E51CF05B
:1000F0008F828E83E5822404F582E43583F583E5DF
:100100001DF08F828E83E5822405F582E43583F528
:1001100083E51EF08F828E83E5822406F582E43526
:1001200083F583E51FF08F828E83E5822407F582B5
:10013000E43583F583E520F0120A1874082508F5E4
:1001400008C39516E495154009751101E4F50B7582
:100150000D017509C30202857F017E00120BC112D9
:100160000A18020285E50E64016009E50E6402606A
:10017000030202A3900003E519F0A3E51AF0A3E53A
:100180001BF0A3E51CF0A3E51DF0A3E51EF0A3E51D
:100190001FF07509C3E4F508750F01AF19EF64216D
:1001A000700BAF1AEF64097004F50D8003750D0133
:1001B000120A18AF1F7515008F160202A3E50E6410
:1001C0000360030202A3AF0AD3EF94047480948007
:1001D000500302028AE50964C3600302027B7401D2
:1001E0002508F582E43400AF82A823F608A607A804
:1001F00023E6FE08E6FFF5828E83E519F0A3E51AF3
:10020000F08F828E83A3A3E51BF08F828E83A3A33E
:10021000A3E51CF08F828E83E5822404F582E43509
:1002200083F583E51DF08F828E83E5822405F582B8
:10023000E43583F583E51EF08F828E83E582240604
:10024000F582E43583F583E51FF08F828E83E582A6
:100250002407F582E43583F583E520F0120A18744B
:10026000082508F508C39516E49515400975110190
:10027000E4F50B750D0175094B800A7F017E0012B4
:100280000BC1120A18E4F50F8019E4F50B7F01FE8B
:10029000120BC1E4F50E120A1880087512018003D2
:1002A000E4F50E052305232278069000FCA90BE057
:1002B00013400D63B0037806A312041800008019E0
:1002C000120418A30000D81100000063B0037806E0
:1002D00012041800000000000013400D63B0037802
:1002E000061204180000008019120418000000D83B
:1002F0001100000063B0037806120418000000002B
:10030000000013400D63B0037806120418000000CB
:100310008019120418000000D81100000063B00317
:10032000780612041800000000000013400D63B0AE
:100330000378061204180000008019120418000047
:1003400000D81100000063B0037806120418000002
:100350000000000013400D63B0037806120418007B
:1003600000008019120418000000D811000000637A
:10037000B003780612041800000000000013400DBE
:1003800063B00378061204180000008019120418E4
:10039000000000D81100000063B0037806120418B2
:1003A00000000000000013400D63B0037806120443
:1003B000180000008019120418000000D811000075
:1003C0000063B00378061204180000000000001358
:1003D000401163B0037806E0000000000000D9354A
:1003E000008038D91612041800D83000000063B01D
:1003F0000378061204180000008020E0000000D8F6
:100400001400000000000000000063B00378061232
:1004100004180202B00202B0000022000053B0FC37
:100420001204181204181204180000000000000042
:100430000000000043B00122740900000000000029
:100440001470F7000000000000007B067A017917A5
:10045000780C7780020478E5B05403605F6A131368
:10046000F733C2E1FA00500B000000DB0B1205B8B5
:100470000204787B0602047800E5B05403603D6A0C
:10048000C2E213FA09E8603400500A0000DB0A12E5
:1004900005B80204997B060000E5B05403601D6AAC
:1004A000C2E213FA0000500D0000000000DB32121F
:1004B00005B80204E17B0600000204E1740D98F522
:1004C0000A120C75E50D550C700122C289D2AF7568
:1004D0000C00D0E0D0E0900B64C082C08375D000E7
:1004E00032E5B0540360D56AC2E213FA0000500D41
:1004F0000000000000DB0D1205B80205047B0600B9
:1005000000000000E5B0540360B26AC2E213FA00D2
:1005100000500D0000000000DB0D1205B802052799
:100520007B060000000000E5B0540360406AC2E2B0
:1005300013FA0000500D0000000000DB0D1205B89A
:1005400002054A7B060000000000E5B05403601D70
:100550006AC2E213FA0000500D0000000000DB3216
:100560001205B80205927B060000020592740D98F0
:10057000F50A120C75E50D550C700122C289D2AF37
:10058000750C00D0E0D0E0900B64C082C08375D0C1
:100590000032E5B0540360D56AC2E213FA18005085
:1005A000100000DB090000001205B8020457020425
:1005B000577B0600000204577B0600EAB2E0FA000F
:1005C0000000000022E50F640160030206DBF50F66
:1005D000900003E064806003020677A3E064066095
:1005E0000302066F900006E024FE601514602E24BE
:1005F0000260030206DB7D127BFF7A0C797802062B
:10060000D8900009E0C3941B748094805004E0FDEE
:1006100080027D1B7BFF7A0C79D00206D890000502
:10062000E0700A7D047BFF7A0D79398034900005F3
:10063000E06401700A7D167BFF7A0C79EB802290D2
:100640000005E06402700A7D1A7BFF7A0D79018053
:1006500010900005E0640370127D167BFF7A0D791F
:100660001B120721900000E0FF802D7F4B80299016
:100670000004E07066804C900003E07020A3E0244A
:10068000F7601324047054AF107F4B120A9490004B
:1006900005E0F51080457F4B120A94803E900003E0
:1006A000E064817010A3E0640670307D467BFF7AC1
:1006B0000C798A8023900003E06421700BA3E0642E
:1006C0000A7018120C498013900003E064A1700BAB
:1006D0007D087BFF7A0D7931120721E5116041E435
:1006E000F5127F4B120A949000FBE0900108F0E4B1
:1006F000F511F50FE5127015900108E0FF9000FB71
:10070000E0C39FD394057480948040E822AF16150F
:1007100023A823A6077B017A007901AF13120BA44B
:10072000221523A823A605152315231523A823A6E0
:100730000308A60208A60115231523750E029000D2
:10074000FC7480F0900000744BF0E5232405F8E67B
:10075000FF7E00D3940074809480500302085C9064
:100760000000E0FD9000FDF0ED644B90000070058E
:1007700074C3F08003744BF0C3EF9408EE6480946C
:10078000804053A82308E4F6A82308E6C39408741D
:10079000809480502CA8230808860308E6FA08E60F
:1007A000F9A82308E6FFF582758300120AF6FE74A5
:1007B000FE2FF582E43400F583EEF0A823080680CE
:1007C000C7A8230808120863750B0CE5232405F855
:1007D00074F826F6805EA823087602E5232405F83F
:1007E000E62402FFE433FEA82308E6C39FEE6480FC
:1007F000F87480985028A82308088603080806E69D
:1008000018860270010614F9120ADDFFA82308E613
:1008100024FCF582E43400F583EFF00680BDE52387
:100820002405F8E6FF12086FE5232405F8E6240402
:10083000F50BE4F69000FBE0A823F6E50B7003024D
:10084000074AE50E64027011A8239000FBE0C396EE
:10085000D394057480948040E2E4F50BE5232406EC
:10086000F523227408080826F618E436F67F0815E2
:1008700023A823A607152315231523A82374FFF601
:1008800008F6A82308087602E5232403F8E6166094
:100890003FA8230808E624FCF582E43400F583E051
:1008A000FFA823E6FC08E6FDEF6D25E0FFE433FE3C
:1008B000743D2FF582740D3EF583ECFFE493FE74D6
:1008C00001936FA823A60608F6A82308080680B897
:1008D000A823E6FE08E6F4FFEEF4A823F608A60730
:1008E000A823E6FE08E6FDA8230808E6FC24FCF59C
:1008F00082E43400F583EDF0EEFF74FD2CF582E424
:100900003400F583EFF0E5232404F52322787FE417
:10091000F6D8FD758123020954020C28E493A3F84C
:10092000E493A34003F68001F208DFF48029E49306
:10093000A3F85407240CC8C333C4540F4420C883FD
:100940004004F456800146F6DFE4800B01020408FF
:1009500010204080900B85E47E019360BCA3FF547F
:100960003F30E509541FFEE493A360010ECF54C04D
:1009700025E060A840B8E493A3FAE493A3F8E493D5
:10098000A3C8C582C8CAC583CAF0A3C8C582C8CADD
:10099000C583CADFE9DEE780BE43B20353B1FC1270
:1009A0000A0C63B003120A0C63B003120A0C63B0A2
:1009B00003120A0C63B003120A0C63B003120A0C90
:1009C00063B003120A0C63B003120A0C120A0C0083
:1009D00063B003120A0C120A0C0063B003120A0C73
:1009E000120A0C120A0C000063B003120A0C120A5D
:1009F0000C0063B003120A0C53B0FC120A0C120A6A
:100A00000C0043B00153B2FC43B1032200000000CC
:100A1000000000000000002243B20353B1FC63B0A9
:100A200003120A8863B003120A8863B003120A88AB
:100A300063B003120A8863B003120A8863B003121A
:100A40000A8863B003120A88120A880063B003128E
:100A50000A88120A880063B003120A8863B003127E
:100A60000A88120A880063B003120A88120A8812E0
:100A70000A88000053B0FC120A88120A880043B0AA
:100A80000153B2FC43B1032200000000000000004B
:100A9000000000221523A823A6071523750E029037
:100AA00000FC7480F0A82308E6A3F0E4A3F0A3F010
:100AB000750B049000FBE0A823F6E50B601AE50E29
:100AC00064027011A8239000FBE0C396D3940574D0
:100AD00080948040E5E4F50B0523052322BB010645
:100AE00089828A83E0225002E722BBFE02E3228948
:100AF000828A83E49322BB010CE58229F582E58397
:100B00003AF583E0225006E92582F8E622BBFE068C
:100B1000E92582F8E222E58229F582E5833AF58328
:100B2000E49322C0E0C0F0C083C082C0D075D00082
:100B3000C000C001C002C003C004C005C006C00799
:100B4000C2AF120438C289D2AFD007D006D005D0C8
:100B500004D003D002D001D000D0D0D082D083D036
:100B6000F0D0E0321205C5D007D006D005D004D0B1
:100B700003D002D001D000D0D0D082D083D0F0D02A
:100B8000E0750C0122010B00010A00010C01010DAE
:100B9000014100FB00090E0000000000000000FF02
:100BA00001080000152315231523A823A60308A672
:100BB0000208A6011523A823A607E5232405F5238B
:100BC00022EF1FAC0670011E4C60120000000000F6
:100BD000000000000000000000000080E422ED3072
:100BE000E005EF42B28004EFF452B2ED30E104EFE1
:100BF00042B122EFF452B122AB07AA06EB1BAE02C0
:100C000070011A4E60097FE77E03120BC180ED224E
:100C1000E5B054FC4401F5B043B20353B1FC1202F9
:100C2000A853B2FC43B10322120C637F327E001240
:100C30000BF8120C6F43870180FBE5B054FC4401B4
:100C4000F5B07D027F07020BDE9000FC7480F0A3FC
:100C5000741EF0750B022243B80143B701D28843DA
:100C6000A88122C2A853B0FC7D017F03020BDE12D3
:100C70000C3A020C57020006120110010000000895
:100C80003412785612900102030105010900A101F6
:100C9000150026FF007508850195F8090081028579
:100CA000029507090091028503950F0900910285BD
:100CB00004951F090091028505953F090091028561
:100CC00006957F09009102850795F709009102C0FA
:100CD00009021B000101008032090400000003002A
:100CE000000009210101000122460016035400689A
:100CF0000061006E00680020005400F9006E00677B
:100D0000001A0353005400430038004600200055E9
:100D100000530042004800490044001603320031ED
:100D2000002D00300033002D00320030003100393A
:100D3000000000000000000000040309040000C0DF
:100D4000C1C1810140C30103C00280C241C6010686
:100D5000C00780C7410500C5C1C4810440CC010C57
:100D6000C00D80CD410F00CFC1CE810E400A00CA18
:100D7000C1CB810B40C90109C00880C841D8011806
:100D8000C01980D9411B00DBC1DA811A401E00DE88
:100D9000C1DF811F40DD011DC01C80DC411400D477
:100DA000C1D5811540D70117C01680D641D2011296
:100DB000C01380D3411100D1C1D0811040F0013067
:100DC000C03180F1413300F3C1F28132403600F688
:100DD000C1F7813740F50135C03480F4413C00FC57
:100DE000C1FD813D40FF013FC03E80FE41FA013A16
:100DF000C03B80FB413900F9C1F88138402800E848
:100E0000C1E9812940EB012BC02A80EA41EE012E85
:100E1000C02F80EF412D00EDC1EC812C40E4012476
:100E2000C02580E5412700E7C1E68126402200E297
:100E3000C1E3812340E10121C02080E041A00160A5
:100E4000C06180A1416300A3C1A28162406600A687
:100E5000C1A7816740A50165C06480A4416C00AC56
:100E6000C1AD816D40AF016FC06E80AE41AA016A15
:100E7000C06B80AB416900A9C1A88168407800B807
:100E8000C1B9817940BB017BC07A80BA41BE017E85
:100E9000C07F80BF417D00BDC1BC817C40B4017476
:100EA000C07580B5417700B7C1B68176407200B297
:100EB000C1B3817340B10171C07080B041500090E6
:100EC000C191815140930153C05280924196015685
:100ED000C057809741550095C1948154409C015C56
:100EE000C05D809D415F009FC19E815E405A009A17
:100EF000C19B815B40990159C05880984188014845
:100F0000C0498089414B008BC18A814A404E008E86
:100F1000C18F814F408D014DC04C808C4144008475
:100F2000C185814540870147C04680864182014294
:0D0F3000C043808341410081C18081404069
:00000001FF
