:1000000002090D020B2315221522E4F50DAF17EF9F
:1000100064E17018E518547FA822F6E6FF651060C9
:1000200006EF60030202A3750E03801DAF17EF6495
:100030002D702BE518547FA822F6E6FF65106006A8
:10004000EF60030202A3750E01E518C413131354E5
:1000500001F513E519540725E042130202A3E51741
:1000600024B570030201BD24F170030202A324979A
:10007000603624F1700302029B246960030202A02F
:10008000E518547FA822F6E6FF65106006EF6003CE
:100090000202A3E50B6008120C0FE4F50B800312BB
:1000A0000999750E020202A3E50E640360030201C2
:1000B00065E509644B600302015874012508F58267
:1000C000E43400AF82A822F608A607A822E6FE08BC
:1000D000E6FFF5828E83E518F0A3E519F08F828E96
:1000E00083A3A3E51AF08F828E83A3A3A3E51BF05D
:1000F0008F828E83E5822404F582E43583F583E5DF
:100100001CF08F828E83E5822405F582E43583F529
:1001100083E51DF08F828E83E5822406F582E43527
:1001200083F583E51EF08F828E83E5822407F582B6
:10013000E43583F583E51FF0120A1874082508F5E5
:1001400008C39515E495144009751101E4F50B7584
:100150000D017509C30202857F017E00120BC012DA
:100160000A18020285E50E64016009E50E6402606A
:10017000030202A3900003E518F0A3E519F0A3E53C
:100180001AF0A3E51BF0A3E51CF0A3E51DF0A3E521
:100190001EF07509C3E4F508750F01AF18EF64216F
:1001A000700BAF19EF64097004F50D8003750D0134
:1001B000120A18AF1E7514008F150202A3E50E6413
:1001C0000360030202A3AF0AD3EF94047480948007
:1001D000500302028AE50964C3600302027B7401D2
:1001E0002508F582E43400AF82A822F608A607A805
:1001F00022E6FE08E6FFF5828E83E518F0A3E519F6
:10020000F08F828E83A3A3E51AF08F828E83A3A33F
:10021000A3E51BF08F828E83E5822404F582E4350A
:1002200083F583E51CF08F828E83E5822405F582B9
:10023000E43583F583E51DF08F828E83E582240605
:10024000F582E43583F583E51EF08F828E83E582A7
:100250002407F582E43583F583E51FF0120A18744C
:10026000082508F508C39515E49514400975110192
:10027000E4F50B750D0175094B800A7F017E0012B4
:100280000BC0120A18E4F50F8019E4F50B7F01FE8C
:10029000120BC0E4F50E120A1880087512018003D3
:1002A000E4F50E052205222278069000FCA90BE059
:1002B00013400D63B0037806A312041800008019E0
:1002C000120418A30000D81100000063B0037806E0
:1002D00012041800000000000013400D63B0037802
:1002E000061204180000008019120418000000D83B
:1002F0001100000063B0037806120418000000002B
:10030000000013400D63B0037806120418000000CB
:100310008019120418000000D81100000063B00317
:10032000780612041800000000000013400D63B0AE
:100330000378061204180000008019120418000047
:1003400000D81100000063B0037806120418000002
:100350000000000013400D63B0037806120418007B
:1003600000008019120418000000D811000000637A
:10037000B003780612041800000000000013400DBE
:1003800063B00378061204180000008019120418E4
:10039000000000D81100000063B0037806120418B2
:1003A00000000000000013400D63B0037806120443
:1003B000180000008019120418000000D811000075
:1003C0000063B00378061204180000000000001358
:1003D000401163B0037806E0000000000000D9354A
:1003E000008038D91612041800D83000000063B01D
:1003F0000378061204180000008020E0000000D8F6
:100400001400000000000000000063B00378061232
:1004100004180202B00202B0000022000053B0FC37
:100420001204181204181204180000000000000042
:100430000000000043B00122740900000000000029
:100440001470F7000000000000007B067A017916A6
:10045000780C7780020478E5B05403605F6A131368
:10046000F733C2E1FA00500B000000DB0B1205B8B5
:100470000204787B0602047800E5B05403603D6A0C
:10048000C2E213FA09E8603400500A0000DB0A12E5
:1004900005B80204997B060000E5B05403601D6AAC
:1004A000C2E213FA0000500D0000000000DB32121F
:1004B00005B80204E17B0600000204E1740D98F522
:1004C0000A120C74E50D550C700122C289D2AF7569
:1004D0000C00D0E0D0E0900B64C082C08375D000E7
:1004E00032E5B0540360D56AC2E213FA0000500D41
:1004F0000000000000DB0D1205B80205047B0600B9
:1005000000000000E5B0540360B26AC2E213FA00D2
:1005100000500D0000000000DB0D1205B802052799
:100520007B060000000000E5B0540360406AC2E2B0
:1005300013FA0000500D0000000000DB0D1205B89A
:1005400002054A7B060000000000E5B05403601D70
:100550006AC2E213FA0000500D0000000000DB3216
:100560001205B80205927B060000020592740D98F0
:10057000F50A120C74E50D550C700122C289D2AF38
:10058000750C00D0E0D0E0900B64C082C08375D0C1
:100590000032E5B0540360D56AC2E213FA18005085
:1005A000100000DB090000001205B8020457020425
:1005B000577B0600000204577B0600EAB2E0FA000F
:1005C0000000000022E50F640160030206DBF50F66
:1005D000900003E064806003020677A3E064066095
:1005E0000302066F900006E024FE601514602E24BE
:1005F0000260030206DB7D127BFF7A0C797702062C
:10060000D8900009E0C3941B748094805004E0FDEE
:1006100080027D1B7BFF7A0C79CF0206D890000503
:10062000E0700A7D047BFF7A0D79388034900005F4
:10063000E06401700A7D167BFF7A0C79EA802290D3
:100640000005E06402700A7D1A7BFF7A0D79008054
:1006500010900005E0640370127D167BFF7A0D791F
:100660001A120721900000E0FF802D7F4B80299017
:100670000004E07066804C900003E07020A3E0244A
:10068000F7601324047054AF107F4B120A9490004B
:1006900005E0F51080457F4B120A94803E900003E0
:1006A000E064817010A3E0640670307D467BFF7AC1
:1006B0000C79898023900003E06421700BA3E0642F
:1006C0000A7018120C488013900003E064A1700BAC
:1006D0007D087BFF7A0D7930120721E5116041E436
:1006E000F5127F4B120A949000FBE0900108F0E4B1
:1006F000F511F50FE5127015900108E0FF9000FB71
:10070000E0C39FD394057480948040E822AF151510
:1007100022A822A6077B017A007901AF13120BA34E
:10072000221522A822A605152215221522A822A6E6
:100730000308A60208A60115221522750E029000D4
:10074000FC7480F0900000744BF0E5222405F8E67C
:10075000FF7E00D3940074809480500302085C9064
:100760000000E0FD9000FDF0ED644B90000070058E
:1007700074C3F08003744BF0C3EF9408EE6480946C
:10078000804053A82208E4F6A82208E6C39408741F
:10079000809480502CA8220808860308E6FA08E610
:1007A000F9A82208E6FFF582758300120AF6FE74A6
:1007B000FE2FF582E43400F583EEF0A822080680CF
:1007C000C7A8220808120863750B0CE5222405F857
:1007D00074F826F6805EA822087602E5222405F841
:1007E000E62402FFE433FEA82208E6C39FEE6480FD
:1007F000F87480985028A82208088603080806E69E
:1008000018860270010614F9120ADDFFA82208E614
:1008100024FCF582E43400F583EFF00680BDE52288
:100820002405F8E6FF12086FE5222405F8E6240403
:10083000F50BE4F69000FBE0A822F6E50B7003024E
:10084000074AE50E64027011A8229000FBE0C396EF
:10085000D394057480948040E2E4F50BE5222406ED
:10086000F522227408080826F618E436F67F0815E3
:1008700022A822A607152215221522A82274FFF607
:1008800008F6A82208087602E5222403F8E6166096
:100890003FA8220808E624FCF582E43400F583E052
:1008A000FFA822E6FC08E6FDEF6D25E0FFE433FE3D
:1008B000743C2FF582740D3EF583ECFFE493FE74D7
:1008C00001936FA822A60608F6A82208080680B899
:1008D000A822E6FE08E6F4FFEEF4A822F608A60732
:1008E000A822E6FE08E6FDA8220808E6FC24FCF59E
:1008F00082E43400F583EDF0EEFF74FD2CF582E424
:100900003400F583EFF0E5222404F52222787FE419
:10091000F6D8FD758122020954020C27E493A3F84E
:10092000E493A34003F68001F208DFF48029E49306
:10093000A3F85407240CC8C333C4540F4420C883FD
:100940004004F456800146F6DFE4800B01020408FF
:1009500010204080900B85E47E019360BCA3FF547F
:100960003F30E509541FFEE493A360010ECF54C04D
:1009700025E060A840B8E493A3FAE493A3F8E493D5
:10098000A3C8C582C8CAC583CAF0A3C8C582C8CADD
:10099000C583CADFE9DEE780BE43B20353B1FC1270
:1009A0000A0C63B003120A0C63B003120A0C63B0A2
:1009B00003120A0C63B003120A0C63B003120A0C90
:1009C00063B003120A0C63B003120A0C120A0C0083
:1009D00063B003120A0C120A0C0063B003120A0C73
:1009E000120A0C120A0C000063B003120A0C120A5D
:1009F0000C0063B003120A0C53B0FC120A0C120A6A
:100A00000C0043B00153B2FC43B1032200000000CC
:100A1000000000000000002243B20353B1FC63B0A9
:100A200003120A8863B003120A8863B003120A88AB
:100A300063B003120A8863B003120A8863B003121A
:100A40000A8863B003120A88120A880063B003128E
:100A50000A88120A880063B003120A8863B003127E
:100A60000A88120A880063B003120A88120A8812E0
:100A70000A88000053B0FC120A88120A880043B0AA
:100A80000153B2FC43B1032200000000000000004B
:100A9000000000221522A822A6071522750E02903A
:100AA00000FC7480F0A82208E6A3F0E4A3F0A3F011
:100AB000750B049000FBE0A822F6E50B601AE50E2A
:100AC00064027011A8229000FBE0C396D3940574D1
:100AD00080948040E5E4F50B0522052222BB010647
:100AE00089828A83E0225002E722BBFE02E3228948
:100AF000828A83E49322BB010CE58229F582E58397
:100B00003AF583E0225006E92582F8E622BBFE068C
:100B1000E92582F8E222E58229F582E5833AF58328
:100B2000E49322C0E0C0F0C083C082C0D075D00082
:100B3000C000C001C002C003C004C005C006C00799
:100B4000C2AF120438C289D2AFD007D006D005D0C8
:100B500004D003D002D001D000D0D0D082D083D036
:100B6000F0D0E0321205C5D007D006D005D004D0B1
:100B700003D002D001D000D0D0D082D083D0F0D02A
:100B8000E0750C0122010B00010A00010C01010DAE
:100B9000014100FB00080E00000000000000FF0102
:100BA000080000152215221522A822A60308A60275
:100BB00008A6011522A822A607E5222405F522226F
:100BC000EF1FAC0670011E4C601200000000000018
:100BD0000000000000000000000080E422ED30E092
:100BE00005EF42B28004EFF452B2ED30E104EF427F
:100BF000B122EFF452B122AB07AA06EB1BAE027092
:100C0000011A4E60097FE77E03120BC080ED22E5DA
:100C1000B054FC4401F5B043B20353B1FC1202A836
:100C200053B2FC43B10322120C627F327E00120BDE
:100C3000F7120C6E43870180FBE5B054FC4401F5CC
:100C4000B07D027F07020BDD9000FC7480F0A3747E
:100C50001EF0750B022243B80143B701D28843A8A6
:100C60008122C2A853B0FC7D017F03020BDD120C70
:100C700039020C560200061201100100000008346F
:100C800012785612900102030105010900A1011515
:100C90000026FF007508850195F80900810285028C
:100CA0009507090091028503950F090091028504BB
:100CB000951F090091028505953F0900910285065F
:100CC000957F09009102850795F709009102C009F7
:100CD000021B000101008032090400000003000033
:100CE000000921010100012246001603540068009A
:100CF00061006E00680020005400F9006E0067007B
:100D00001A035300540043003800460020005500E9
:100D100053004200480049004400160332003100ED
:100D20002D00300033002D0032003000310039003A
:100D30000000000000000000040309040000C0C11E
:100D4000C1810140C30103C00280C241C60106C087
:100D50000780C7410500C5C1C4810440CC010CC057
:100D60000D80CD410F00CFC1CE810E400A00CAC117
:100D7000CB810B40C90109C00880C841D80118C007
:100D80001980D9411B00DBC1DA811A401E00DEC187
:100D9000DF811F40DD011DC01C80DC411400D4C177
:100DA000D5811540D70117C01680D641D20112C097
:100DB0001380D3411100D1C1D0811040F00130C067
:100DC0003180F1413300F3C1F28132403600F6C187
:100DD000F7813740F50135C03480F4413C00FCC157
:100DE000FD813D40FF013FC03E80FE41FA013AC017
:100DF0003B80FB413900F9C1F88138402800E8C147
:100E0000E9812940EB012BC02A80EA41EE012EC086
:100E10002F80EF412D00EDC1EC812C40E40124C076
:100E20002580E5412700E7C1E68126402200E2C196
:100E3000E3812340E10121C02080E041A00160C0A6
:100E40006180A1416300A3C1A28162406600A6C186
:100E5000A7816740A50165C06480A4416C00ACC156
:100E6000AD816D40AF016FC06E80AE41AA016AC016
:100E70006B80AB416900A9C1A88168407800B8C106
:100E8000B9817940BB017BC07A80BA41BE017EC086
:100E90007F80BF417D00BDC1BC817C40B40174C076
:100EA0007580B5417700B7C1B68176407200B2C196
:100EB000B3817340B10171C07080B041500090C1E6
:100EC00091815140930153C052809241960156C086
:100ED00057809741550095C1948154409C015CC056
:100EE0005D809D415F009FC19E815E405A009AC116
:100EF0009B815B40990159C058809841880148C046
:100F0000498089414B008BC18A814A404E008EC185
:100F10008F814F408D014DC04C808C41440084C175
:100F200085814540870147C046808641820142C095
:0C0F300043808341410081C1808140402A
:00000001FF
