:1000000002091B020B4A15231523E4F50DAF18EF67
:1000100064E17018E519547FA823F6E6FF651060C7
:1000200006EF6003020288750E03801DAF18EF64AF
:100030002D702BE519547FA823F6E6FF65106006A6
:10004000EF6003020288750E01E519C413131354FF
:1000500001F513E51A540725E04213020288E5185A
:1000600024B570030201A524F170030202882497CD
:10007000603624F170030202802469600302028565
:10008000E519547FA823F6E6FF65106006EF6003CC
:10009000020288E50B6008120C38E4F50B800312AD
:1000A00009A7750E02020288E50E640360030201CF
:1000B00065E509644B600302015874012508F58267
:1000C000E43400AF82A823F608A607A823E6FE08BA
:1000D000E6FFF5828E83E519F0A3E51AF08F828E94
:1000E00083A3A3E51BF08F828E83A3A3A3E51CF05B
:1000F0008F828E83E5822404F582E43583F583E5DF
:100100001DF08F828E83E5822405F582E43583F528
:1001100083E51EF08F828E83E5822406F582E43526
:1001200083F583E51FF08F828E83E5822407F582B5
:10013000E43583F583E520F0120A2674082508F5D6
:1001400008C39516E495154009751101E4F50B7582
:100150000D017509C302026D7F017E00120BE912C9
:100160000A2602026DE50E64016003020288900017
:1001700003E519F0A3E51AF0A3E51BF0A3E51CF0D5
:10018000A3E51DF0A3E51EF0A3E51FF07509C3E488
:10019000F508750F01750D01120A26AF1F751500C0
:1001A0008F16020288E50E64036003020288AF0A1C
:1001B000D3EF9404748094805003020272E50964C2
:1001C000C3600302026374012508F582E43400AFC2
:1001D00082A823F608A607A823E6FE08E6FFF58214
:1001E0008E83E519F0A3E51AF08F828E83A3A3E531
:1001F0001BF08F828E83A3A3A3E51CF08F828E83D6
:10020000E5822404F582E43583F583E51DF08F82D1
:100210008E83E5822405F582E43583F583E51EF0BF
:100220008F828E83E5822406F582E43583F583E5AB
:100230001FF08F828E83E5822407F582E43583F5F3
:1002400083E520F0120A2674082508F508C39516E0
:10025000E495154009751101E4F50B750D0175095B
:100260004B800A7F017E00120BE9120A26E4F50F8B
:100270008016E4F50B7F01FE120BE9120A268008B6
:100280007512018003E4F50E0523052322780690FC
:1002900000FDA90BE013400D63B0037806A3120321
:1002A000FD000080191203FDA30000D8110000001A
:1002B00063B00378061203FD000000000000134045
:1002C0000D63B00378061203FD00000080191203CD
:1002D000FD000000D81100000063B003780612038F
:1002E000FD00000000000013400D63B0037806120B
:1002F00003FD00000080191203FD000000D811006A
:10030000000063B00378061203FD00000000000047
:1003100013400D63B00378061203FD00000080193E
:100320001203FD000000D81100000063B00378063E
:100330001203FD00000000000013400D63B00378BD
:10034000061203FD00000080191203FD000000D812
:100350001100000063B00378061203FD00000000E6
:10036000000013400D63B00378061203FD00000087
:1003700080191203FD000000D81100000063B003D3
:1003800078061203FD00000000000013400D63B06A
:100390000378061203FD00000080191203FD00001F
:1003A00000D81100000063B00378061203FD0000BE
:1003B0000000000013401163B0037806E000000065
:1003C000000000D935008038D9161203FD00D8305E
:1003D00000000063B00378061203FD0000008020D7
:1003E000E0000000D81400000000000000000063DE
:1003F000B00378061203FD02029502029500002266
:10040000000053B0FC1203FD1203FD1203FD0000B7
:1004100000000000000000000043B0012274090049
:1004200000000000001470F7000000000000007BD6
:10043000067A017917780C778002045DE5B05403E1
:10044000605F6A1313F733C2E1FA00500B0000003B
:10045000DB0B12059D02045D7B0602045D00E5B026
:100460005403603D6AC2E213FA09E8603400500A9E
:100470000000DB0A12059D02047E7B060000E5B049
:100480005403601D6AC2E213FA0000500D00000020
:100490000000DB3212059D0204C67B060000020448
:1004A000C6740D98F50A120C9DE50D550C700122CD
:1004B000C289D2AF750C00D0E0D0E0900B8BC08227
:1004C000C08375D00032E5B0540360D56AC2E21330
:1004D000FA0000500D0000000000DB0D12059D0227
:1004E00004E97B060000000000E5B0540360B26A36
:1004F000C2E213FA0000500D0000000000DB0D12F4
:10050000059D02050C7B060000000000E5B05403C9
:1005100060406AC2E213FA0000500D0000000000C3
:10052000DB0D12059D02052F7B060000000000E593
:10053000B05403601D6AC2E213FA0000500D0000BF
:10054000000000DB3212059D0205777B06000002E9
:100550000577740D98F50A120C9DE50D550C700188
:1005600022C289D2AF750C00D0E0D0E0900B8BC0D6
:1005700082C08375D00032E5B0540360D56AC2E210
:1005800013FA180050100000DB0900000012059D4E
:1005900002043C02043C7B06000002043C7B060093
:1005A000EAB2E0FA000000000022E50F64016003F7
:1005B0000206C0F50F900003E06480600302065C51
:1005C000A3E064066003020654900006E024FE6087
:1005D0001514602E240260030206C07D127BFF7A90
:1005E0000C79A00206BD900009E0C3941B748094AE
:1005F000805004E0FD80027D1B7BFF7A0C79F802BD
:1006000006BD900005E0700A7D047BFF7A0D7961DC
:100610008034900005E06401700A7D167BFF7A0D3E
:1006200079138022900005E06402700A7D1A7BFF36
:100630007A0D79298010900005E0640370127D1610
:100640007BFF7A0D794312070F900000E0FF802DA9
:100650007F4B8029900004E07066804C900003E09E
:100660007020A3E024F7601324047054AF107F4B74
:10067000120AA2900005E0F51080457F4B120AA2F5
:10068000803E900003E064817010A3E06406703047
:100690007D467BFF7A0C79B28023900003E06421D1
:1006A000700BA3E0640A7018120C718013900003A1
:1006B000E064A1700B7D087BFF7A0D795912070F5A
:1006C000E511604AE4F5127F4B120AA29000FBE0AC
:1006D000FFA3E0900109CFF0A3EFF0E4F511F50FCF
:1006E000E512701F900109E0FEA3E0FFC39000FC3B
:1006F000E09FFF9000FBE09EFED3EF9405EE940098
:1007000040DE22AD167B017A007901120BCC221556
:1007100023A823A605152315231523A823A603081C
:10072000A60208A6011523152315239000FD748049
:10073000F0750E02900000744BF0E5232406F8E6F5
:10074000FF7E00D394007480948050030208699067
:100750000000E0FD9000FEF0ED644B90000070059D
:1007600074C3F08003744BF0C3EF9408EE6480947C
:10077000804058A8230808E4F6A8230808E6C39494
:100780000874809480502FE5232403F8860308E63C
:10079000FA08E6F9A8230808E6FFF5827583001237
:1007A0000B1DFE74FF2FF582E43400F583EEF0A8F4
:1007B0002308080680C3E5232403120870750B0C78
:1007C000E5232406F874F826F68062A82308087644
:1007D00002E5232406F8E62402FFE433FEA82308FA
:1007E00008E6C39FEE6480F8748098502AE52324BD
:1007F00003F88603080806E618860270010614F955
:10080000120B04FFA8230808E624FDF582E4340057
:10081000F583EFF00680BAE5232406F8E6FF120818
:100820007DE5232406F8E62404F50BE4F69000FBAE
:10083000E0FEA3E0A823A60608F6E50B7003020776
:100840003AE50E64026002801DA823E6FE08E6FF7A
:10085000C39000FCE09FFF9000FBE09EFED3EF946E
:1008600005EE940040D4E4F50BE5232407F523229C
:10087000F87408080826F618E436F67F081523A849
:1008800023A607152315231523A82374FFF608F6BE
:10089000A82308087602E5232403F8E616603FA89B
:1008A000230808E624FDF582E43400F583E0FFA880
:1008B00023E6FC08E6FDEF6D25E0FFE433FE7465FA
:1008C0002FF582740D3EF583ECFFE493FE740193E3
:1008D0006FA823A60608F6A82308080680B8A82350
:1008E000E6FE08E6F4FFEEF4A823F608A607A82320
:1008F000E6FE08E6FDA8230808E6FC24FDF582E4F0
:100900003400F583EDF0EEFF74FE2CF582E4340044
:10091000F583EFF0E5232404F52322787FE4F6D86D
:10092000FD758123020962020C50E493A3F8E4935D
:10093000A34003F68001F208DFF48029E493A3F8D2
:100940005407240CC8C333C4540F4420C883400444
:10095000F456800146F6DFE4800B01020408102003
:100960004080900BACE47E019360BCA3FF543F3009
:10097000E509541FFEE493A360010ECF54C025E0A7
:1009800060A840B8E493A3FAE493A3F8E493A3C85F
:10099000C582C8CAC583CAF0A3C8C582C8CAC583F0
:1009A000CADFE9DEE780BE43B20353B1FC120A1A84
:1009B00063B003120A1A63B003120A1A63B0031277
:1009C0000A1A63B003120A1A63B003120A1A63B058
:1009D00003120A1A63B003120A1A120A1A0063B049
:1009E00003120A1A120A1A0063B003120A1A120A30
:1009F0001A120A1A000063B003120A1A120A1A0025
:100A000063B003120A1A53B0FC120A1A120A1A002F
:100A100043B00153B2FC43B10322000000000000C8
:100A200000000000002243B20353B1FC63B0031284
:100A30000A9663B003120A9663B003120A9663B073
:100A400003120A9663B003120A9663B003120A9661
:100A500063B003120A96120A960063B003120A9654
:100A6000120A960063B003120A9663B003120A9644
:100A7000120A960063B003120A96120A96120A9698
:100A8000000053B0FC120A96120A960043B00153BC
:100A9000B2FC43B10322000000000000000000008F
:100AA00000221523A823A60715231523750E0290EF
:100AB00000FD7480F0A8230808E6A3F0E4A3F0A3E7
:100AC000F0750B049000FBE0FEA3E0A823A6060847
:100AD000F6E50B6028E50E64026002801DA823E69F
:100AE000FE08E6FFC39000FCE09FFF9000FBE09E45
:100AF000FED3EF9405EE940040D7E4F50B052305F3
:100B000023052322BB010689828A83E0225002E763
:100B100022BBFE02E32289828A83E49322BB010C7A
:100B2000E58229F582E5833AF583E0225006E9253E
:100B300082F8E622BBFE06E92582F8E222E5822958
:100B4000F582E5833AF583E49322C0E0C0F0C083E8
:100B5000C082C0D075D000C000C001C002C003C0B8
:100B600004C005C006C007C2AF12041DC289D2AFBF
:100B7000D007D006D005D004D003D002D001D000D9
:100B8000D0D0D082D083D0F0D0E0321205AAD007E6
:100B9000D006D005D004D003D002D001D000D0D0F0
:100BA000D082D083D0F0D0E0750C0122010B00017F
:100BB0000A00010C01010D014200FB0000090E00BA
:100BC00000000000000000FF010800001523A8231A
:100BD000A605152315231523A823A60308A6020896
:100BE000A601E5232404F52322EF1FAC0670011EA5
:100BF0004C60120000000000000000000000000037
:100C000000000080E422ED30E005EF42B28004EF06
:100C1000F452B2ED30E104EF42B122EFF452B122CE
:100C2000AB07AA06EB1BAE0270011A4E60097FE704
:100C30007E03120BE980ED22E5B054FC4401F5B0CF
:100C400043B20353B1FC12028D53B2FC43B10322F1
:100C5000120C8B7F327E00120C20120C97438701FE
:100C600080FBE5B054FC4401F5B07D027F07020C27
:100C7000069000FD7480F0A3741EF0750B022243F1
:100C8000B80143B701D28843A88122C2A853B0FC5F
:100C90007D017F03020C06120C62020C7F0200062B
:100CA000120110010000000834127856129001025F
:100CB000030105010900A101150026FF0075088543
:100CC0000195F809008102850295070900910285C6
:100CD00003950F090091028504951F090091028573
:100CE00005953F090091028506957F0900910285CF
:100CF0000795F709009102C009021B00010100805D
:100D00003209040000000300000009210101000174
:100D100022460016035400680061006E006800203F
:100D2000005400F9006E0067001A0353005400439A
:100D3000003800460020005500530042004800499A
:100D40000044001603320031002D00300033002D26
:100D500000320030003100390000000000000000C7
:100D600000040309040000C0C1C1810140C30103A4
:100D7000C00280C241C60106C00780C7410500C548
:100D8000C1C4810440CC010CC00D80CD410F00CF07
:100D9000C1CE810E400A00CAC1CB810B40C90109F6
:100DA000C00880C841D80118C01980D9411B00DB98
:100DB000C1DA811A401E00DEC1DF811F40DD011D46
:100DC000C01C80DC411400D4C1D5811540D7011767
:100DD000C01680D641D20112C01380D3411100D178
:100DE000C1D0811040F00130C03180F1413300F3B7
:100DF000C1F28132403600F6C1F7813740F5013546
:100E0000C03480F4413C00FCC1FD813D40FF013F06
:100E1000C03E80FE41FA013AC03B80FB413900F9F7
:100E2000C1F88138402800E8C1E9812940EB012B55
:100E3000C02A80EA41EE012EC02F80EF412D00ED47
:100E4000C1EC812C40E40124C02580E5412700E766
:100E5000C1E68126402200E2C1E3812340E1012175
:100E6000C02080E041A00160C06180A1416300A377
:100E7000C1A28162406600A6C1A7816740A5016545
:100E8000C06480A4416C00ACC1AD816D40AF016F06
:100E9000C06E80AE41AA016AC06B80AB416900A9F7
:100EA000C1A88168407800B8C1B9817940BB017B95
:100EB000C07A80BA41BE017EC07F80BF417D00BD47
:100EC000C1BC817C40B40174C07580B5417700B766
:100ED000C1B68176407200B2C1B3817340B1017175
:100EE000C07080B041500090C19181514093015336
:100EF000C052809241960156C05780974155009547
:100F0000C1948154409C015CC05D809D415F009F05
:100F1000C19E815E405A009AC19B815B40990159F4
:100F2000C058809841880148C0498089414B008B56
:100F3000C18A814A404E008EC18F814F408D014D44
:100F4000C04C808C41440084C18581454087014765
:100F5000C046808641820142C04380834141008176
:050F6000C1808140404A
:00000001FF
