:1000000002091D020B4C15271527E4F50DAF18EF5B
:1000100064E17018E519547FA827F6E6FF651060C3
:1000200006EF6003020288750E03801DAF18EF64AF
:100030002D702BE519547FA827F6E6FF65106006A2
:10004000EF6003020288750E01E519C413131354FF
:1000500001F513E51A540725E04213020288E5185A
:1000600024B570030201A524F170030202882497CD
:10007000603624F170030202802469600302028565
:10008000E519547FA827F6E6FF65106006EF6003C8
:10009000020288E50B6008120C37E4F50B800312AE
:1000A00009A9750E02020288E50E640360030201CD
:1000B00065E509644B600302015874012508F58267
:1000C000E43400AF82A827F608A607A827E6FE08B2
:1000D000E6FFF5828E83E519F0A3E51AF08F828E94
:1000E00083A3A3E51BF08F828E83A3A3A3E51CF05B
:1000F0008F828E83E5822404F582E43583F583E5DF
:100100001DF08F828E83E5822405F582E43583F528
:1001100083E51EF08F828E83E5822406F582E43526
:1001200083F583E51FF08F828E83E5822407F582B5
:10013000E43583F583E520F0120A2874082508F5D4
:1001400008C39516E495154009751101E4F50B7582
:100150000D017509C302026D7F017E00120BE812CA
:100160000A2802026DE50E64016003020288900015
:10017000FDE519F0A3E51AF0A3E51BF0A3E51CF0DB
:10018000A3E51DF0A3E51EF0A3E51FF07509C3E488
:10019000F508750F01750D01120A28AF1F751500BE
:1001A0008F16020288E50E64036003020288AF0A1C
:1001B000D3EF9404748094805003020272E50964C2
:1001C000C3600302026374012508F582E43400AFC2
:1001D00082A827F608A607A827E6FE08E6FFF5820C
:1001E0008E83E519F0A3E51AF08F828E83A3A3E531
:1001F0001BF08F828E83A3A3A3E51CF08F828E83D6
:10020000E5822404F582E43583F583E51DF08F82D1
:100210008E83E5822405F582E43583F583E51EF0BF
:100220008F828E83E5822406F582E43583F583E5AB
:100230001FF08F828E83E5822407F582E43583F5F3
:1002400083E520F0120A2874082508F508C39516DE
:10025000E495154009751101E4F50B750D0175095B
:100260004B800A7F017E00120BE8120A28E4F50F8A
:100270008016E4F50B7F01FE120BE8120A288008B5
:100280007512018003E4F50E0527052722780690F4
:10029000010DA90BE013400D63B0037806A3120310
:1002A000FD000080191203FDA30000D8110000001A
:1002B00063B00378061203FD000000000000134045
:1002C0000D63B00378061203FD00000080191203CD
:1002D000FD000000D81100000063B003780612038F
:1002E000FD00000000000013400D63B0037806120B
:1002F00003FD00000080191203FD000000D811006A
:10030000000063B00378061203FD00000000000047
:1003100013400D63B00378061203FD00000080193E
:100320001203FD000000D81100000063B00378063E
:100330001203FD00000000000013400D63B00378BD
:10034000061203FD00000080191203FD000000D812
:100350001100000063B00378061203FD00000000E6
:10036000000013400D63B00378061203FD00000087
:1003700080191203FD000000D81100000063B003D3
:1003800078061203FD00000000000013400D63B06A
:100390000378061203FD00000080191203FD00001F
:1003A00000D81100000063B00378061203FD0000BE
:1003B0000000000013401163B0037806E000000065
:1003C000000000D935008038D9161203FD00D8305E
:1003D00000000063B00378061203FD0000008020D7
:1003E000E0000000D81400000000000000000063DE
:1003F000B00378061203FD02029502029500002266
:10040000000053B0FC1203FD1203FD1203FD0000B7
:1004100000000000000000000043B0012274090049
:1004200000000000001470F7000000000000007BD6
:10043000067A017917780C778002045DE5B05403E1
:10044000605F6A1313F733C2E1FA00500B0000003B
:10045000DB0B12059D02045D7B0602045D00E5B026
:100460005403603D6AC2E213FA09E8603400500A9E
:100470000000DB0A12059D02047E7B060000E5B049
:100480005403601D6AC2E213FA0000500D00000020
:100490000000DB3212059D0204C67B060000020448
:1004A000C6740D98F50A120C9CE50D550C700122CE
:1004B000C289D2AF750C00D0E0D0E09005AAC0820E
:1004C000C08375D00032E5B0540360D56AC2E21330
:1004D000FA0000500D0000000000DB0D12059D0227
:1004E00004E97B060000000000E5B0540360B26A36
:1004F000C2E213FA0000500D0000000000DB0D12F4
:10050000059D02050C7B060000000000E5B05403C9
:1005100060406AC2E213FA0000500D0000000000C3
:10052000DB0D12059D02052F7B060000000000E593
:10053000B05403601D6AC2E213FA0000500D0000BF
:10054000000000DB3212059D0205777B06000002E9
:100550000577740D98F50A120C9CE50D550C700189
:1005600022C289D2AF750C00D0E0D0E09005AAC0BD
:1005700082C08375D00032E5B0540360D56AC2E210
:1005800013FA180050100000DB0900000012059D4E
:1005900002043C02043C7B06000002043C7B060093
:1005A000EAB2E0FA000000000022E50F64016003F7
:1005B0000206BCF50F9000FDE0648060030206585F
:1005C000A3E064066003020650900100E024FE6090
:1005D0001514602E240260030206BC7D127BFF7A94
:1005E0000C799F0206B9900103E0C3941B748094B8
:1005F000805004E0FD80027D1B7BFF7A0C79F702BE
:1006000006B99000FFE0700A7D047BFF7A0D7960E7
:1006100080349000FFE06401700A7D167BFF7A0D44
:10062000791280229000FFE06402700A7D1A7BFF3D
:100630007A0D792880109000FFE06403700B7D161E
:100640007BFF7A0D7942120711900000E0FF8029AC
:100650009000FEE07066804C9000FDE07020A3E00A
:1006600024F7601324047054AF107F4B120AA49037
:1006700000FFE0F51080457F4B120AA4803E9000F9
:10068000FDE064817010A3E0640670307D467BFF5E
:100690007A0C79B180239000FDE06421700BA3E017
:1006A000640A7018120C7080139000FDE064A17051
:1006B0000B7D087BFF7A0D7958120711E511604E0A
:1006C000E4F5127F4B120AA490010BE0FFA3E09027
:1006D000011DCFF0A3EFF0E4F511F50FE512702343
:1006E00090011DE0FEA3E0FFC390010CE09FFF908E
:1006F000010BE09EFED3EF9405EE940040DE120B5A
:10070000AD80D9AD167B017A007901120BCB020BBB
:10071000AD1527A827A605152715271527A827A64D
:100720000308A60208A60115271527152790010D15
:100730007480F0750E02900000744BF0E5272406DB
:10074000F8E6FF7E00D39400748094805003020882
:100750006B900000E0FD90010EF0ED644B90000006
:10076000700574C3F08003744BF0C3EF9408EE641B
:100770008094804058A8270808E4F6A8270808E6CF
:10078000C3940874809480502FE5272403F88603CF
:1007900008E6FA08E6F9A8270808E6FFF582758357
:1007A00000120B1FFE740F2FF582E43401F583EE67
:1007B000F0A82708080680C3E527240312087275ED
:1007C0000B0CE5272406F874F826F68062A82708A3
:1007D000087602E5272406F8E62402FFE433FEA8A3
:1007E000270808E6C39FEE6480F8748098502AE5D5
:1007F000272403F88603080806E618860270010617
:1008000014F9120B06FFA8270808E6240DF582E468
:100810003401F583EFF00680BAE5272406F8E6FFF9
:1008200012087FE5272406F8E62404F50BE4F69089
:10083000010BE0FEA3E0A827A60608F6E50B70036F
:1008400002073CE50E64026002801DA827E6FE0850
:10085000E6FFC390010CE09FFF90010BE09EFED3EA
:10086000EF9405EE940040D4E4F50BE5272407F55A
:100870002722F87408080826F618E436F67F0815CB
:1008800027A827A607152715271527A82774FFF6D9
:1008900008F6A82708087602E5272403F8E616607C
:1008A0003FA8270808E6240DF582E43401F583E02B
:1008B000FFA827E6FC08E6FDEF6D25E0FFE433FE28
:1008C00074642FF582740D3EF583ECFFE493FE749F
:1008D00001936FA827A60608F6A82708080680B87F
:1008E000A827E6FE08E6F4FFEEF4A827F608A60718
:1008F000A827E6FE08E6FDA8270808E6FC240DF573
:1009000082E43401F583EDF0EEFF740E2CF582E401
:100910003401F583EFF0E5272404F52722787FE4FE
:10092000F6D8FD758127020964020C4FE493A3F801
:10093000E493A34003F68001F208DFF48029E493F6
:10094000A3F85407240CC8C333C4540F4420C883ED
:100950004004F456800146F6DFE4800B01020408EF
:1009600010204080900B8DE47E019360BCA3FF5467
:100970003F30E509541FFEE493A360010ECF54C03D
:1009800025E060A840B8E493A3FAE493A3F8E493C5
:10099000A3C8C582C8CAC583CAF0A3C8C582C8CACD
:1009A000C583CADFE9DEE780BE43B20353B1FC1260
:1009B0000A1C63B003120A1C63B003120A1C63B062
:1009C00003120A1C63B003120A1C63B003120A1C50
:1009D00063B003120A1C63B003120A1C120A1C0043
:1009E00063B003120A1C120A1C0063B003120A1C33
:1009F000120A1C120A1C000063B003120A1C120A1D
:100A00001C0063B003120A1C53B0FC120A1C120A29
:100A10001C0043B00153B2FC43B1032200000000AC
:100A2000000000000000002243B20353B1FC63B099
:100A300003120A9863B003120A9863B003120A986B
:100A400063B003120A9863B003120A9863B00312EA
:100A50000A9863B003120A98120A980063B003124E
:100A60000A98120A980063B003120A9863B003123E
:100A70000A98120A980063B003120A98120A981290
:100A80000A98000053B0FC120A98120A980043B06A
:100A90000153B2FC43B1032200000000000000003B
:100AA000000000221527A827A60715271527750E71
:100AB0000290010D7480F0A8270808E6A3F0E4A3D3
:100AC000F0A3F0750B0490010BE0FEA3E0A827A6AD
:100AD0000608F6E50B6028E50E64026002801DA89A
:100AE00027E6FE08E6FFC390010CE09FFF90010B94
:100AF000E09EFED3EF9405EE940040D7E4F50B059D
:100B0000270527052722BB010689828A83E0225018
:100B100002E722BBFE02E32289828A83E49322BB9E
:100B2000010CE58229F582E5833AF583E02250063F
:100B3000E92582F8E622BBFE06E92582F8E222E5F5
:100B40008229F582E5833AF583E49322C0E0C0F080
:100B5000C083C082C0D075D000C000C001C002C038
:100B600003C004C005C006C007C2AF12041DC2897D
:100B7000D2AFD007D006D005D004D003D002D00128
:100B8000D000D0D0D082D083D0F0D0E032010B00A2
:100B9000010A00010C01010D0142010B0000090EC8
:100BA0000000000000000000FF01080000D007D096
:100BB00006D005D004D003D002D001D000D0D0D0D0
:100BC00082D083D0F0D0E0750C01221527A827A68B
:100BD00005152715271527A827A60308A60208A686
:100BE00001E5272404F52722EF1FAC0670011E4CF7
:100BF0006012000000000000000000000000000083
:100C0000000080E422ED30E005EF42B28004EFF412
:100C100052B2ED30E104EF42B122EFF452B122AB17
:100C200007AA06EB1BAE0270011A4E60097FE77E31
:100C300003120BE880ED22E5B054FC4401F5B0430B
:100C4000B20353B1FC12028D53B2FC43B103221222
:100C50000C8A7F327E00120C1F120C964387018093
:100C6000FBE5B054FC4401F5B07D027F07020C05A2
:100C700090010D7480F0A3741EF0750B022243B82E
:100C80000143B701D28843A88122C2AF53B0FC7D93
:100C9000017F03020C05120C61020C7E0200061299
:100CA000011001000000083412785612900102036E
:100CB0000105010900A101150026FF007508850145
:100CC00095F80900810285029507090091028503C4
:100CD000950F090091028504951F09009102850571
:100CE000953F090091028506957F090091028507CD
:100CF00095F709009102C009021B00010100803232
:100D00000904000000030000000921010100012284
:100D1000460016035400680061006E006800200061
:100D20005400F9006E0067001A035300540043009A
:100D3000380046002000550053004200480049009A
:100D400044001603320031002D00300033002D0026
:100D500032003000310039000000000000000000C7
:100D6000040309040000C0C1C1810140C30103C0E4
:100D70000280C241C60106C00780C7410500C5C147
:100D8000C4810440CC010CC00D80CD410F00CFC107
:100D9000CE810E400A00CAC1CB810B40C90109C0F7
:100DA0000880C841D80118C01980D9411B00DBC197
:100DB000DA811A401E00DEC1DF811F40DD011DC047
:100DC0001C80DC411400D4C1D5811540D70117C067
:100DD0001680D641D20112C01380D3411100D1C177
:100DE000D0811040F00130C03180F1413300F3C1B7
:100DF000F28132403600F6C1F7813740F50135C047
:100E00003480F4413C00FCC1FD813D40FF013FC006
:100E10003E80FE41FA013AC03B80FB413900F9C1F6
:100E2000F88138402800E8C1E9812940EB012BC056
:100E30002A80EA41EE012EC02F80EF412D00EDC146
:100E4000EC812C40E40124C02580E5412700E7C166
:100E5000E68126402200E2C1E3812340E10121C076
:100E60002080E041A00160C06180A1416300A3C176
:100E7000A28162406600A6C1A7816740A50165C046
:100E80006480A4416C00ACC1AD816D40AF016FC006
:100E90006E80AE41AA016AC06B80AB416900A9C1F6
:100EA000A88168407800B8C1B9817940BB017BC096
:100EB0007A80BA41BE017EC07F80BF417D00BDC146
:100EC000BC817C40B40174C07580B5417700B7C166
:100ED000B68176407200B2C1B3817340B10171C076
:100EE0007080B041500090C191815140930153C036
:100EF00052809241960156C057809741550095C146
:100F0000948154409C015CC05D809D415F009FC105
:100F10009E815E405A009AC19B815B40990159C0F5
:100F200058809841880148C0498089414B008BC155
:100F30008A814A404E008EC18F814F408D014DC045
:100F40004C808C41440084C185814540870147C065
:100F500046808641820142C043808341410081C175
:040F6000808140400C
:00000001FF
