:100000000208EC020B44E4F50DAF18EF64E1701642
:10001000E519547FF52765106007E52760030202A4
:1000200028750E03801BAF18EF642D7027E5195457
:100030007FF52765106007E5276003020228750E2B
:1000400001E519C41313135401F513E51A540725D8
:10005000E0421322E51824B5700302016F24F17009
:10006000030202282497603224F170030202212443
:10007000696003020225E519547FF52765106007C2
:10008000E5276003020228E50B6008120C12E4F574
:100090000B8003120978750E0222E50E64036003DB
:1000A000020131E509644B707B74012508F9E434E1
:1000B00000752701F5288929AB27FAE519120AB935
:1000C000AB27AA28A929900001E51A120ACB9000B3
:1000D00002E51B120ACB900003E51C120ACB90002C
:1000E00004E51D120ACB900005E51E120ACB120989
:1000F000F7AB27AA28A929900006E51F120ACB9082
:100100000007E520120ACB74082508F508C39516E8
:10011000E495154009751101E4F50B750D0175099C
:10012000C30202117F017E00120BC31209F7020203
:1001300011E50E640160030202289000FDE519F04C
:10014000A3E51AF0A3E51BF0A3E51CF0A3E51DF061
:10015000A3E51EF0A3E51FF01209F7AF1F75150008
:100160008F167509C3E4F508750F01750D0122E5B9
:100170000E64036003020228AF0AD3EF9404748074
:1001800094805003020215E50964C3707A74012556
:1001900008F9E43400752701F5288929AB27FAE529
:1001A00019120AB9AB27AA28A929900001E51A1249
:1001B0000ACB900002E51B120ACB900003E51C124B
:1001C0000ACB900004E51D120ACB900005E51E1233
:1001D0000ACB1209F7AB27AA28A929900006E51F28
:1001E000120ACB900007E520120ACB74082508F507
:1001F00008C39516E495154009751101E4F50B75D2
:100200000D0175094B800A7F017E00120BC3120994
:10021000F7E4F50F22E4F50B7F01FE120BC3020990
:10022000F775120122E4F50E22E50F640160030266
:100230000368F50F9000FDE0648060030202FCA3F8
:10024000E0640660030202F4900100E024FE601BFB
:1002500014604024026003020368152BA82B76016A
:100260007D127BFF7A0C7980020365900103E0C365
:10027000941B74809480500A152BA82B7601E0FD06
:100280008008152BA82B76017D1B7BFF7A0C79D873
:100290000203659000FFE07010152BA82B76017DFE
:1002A000047BFF7A0D794180469000FFE064017085
:1002B00010152BA82B76017D167BFF7A0C79F38025
:1002C0002E9000FFE064027010152BA82B76017DA4
:1002D0001A7BFF7A0D790980169000FFE0640370A5
:1002E00038152BA82B76017D167BFF7A0D7923120A
:1002F00006D880259000FEE0706E804E9000FDE0F4
:10030000701CA3E024F760112404705CAF10120A83
:10031000ED9000FFE0F510804F120AED804A90004A
:10032000FDE064817016A3E06406703C152BA82BD9
:1003300076017D467BFF7A0C799280299000FDE062
:100340006421700BA3E0640A701E120C4B8019909C
:1003500000FDE064A17011152BA82B76017D087BB0
:10036000FF7A0D79391206D8E511604CE4F51212C6
:100370000AED90010BE0FFA3E090011DCFF0A3EF89
:10038000F0E4F511F50FE512702390011DE0FEA3D6
:10039000E0FFC390010CE09FFF90010BE09EFED3B5
:1003A000EF9405EE940040DE120BA580D97B017A14
:1003B000007901AD16120C71020BA5780690010DA3
:1003C000A90BE013400D63B0037806A312052B00C0
:1003D00000801912052BA30000D81100000063B0A3
:1003E00003780612052B00000000000013400D6387
:1003F000B003780612052B000000801912052B00AF
:100400000000D81100000063B003780612052B002D
:10041000000000000013400D63B003780612052BA6
:10042000000000801912052B000000D81100000008
:1004300063B003780612052B000000000000134093
:100440000D63B003780612052B0000008019120519
:100450002B000000D81100000063B00378061205DD
:100460002B00000000000013400D63B0037806125B
:10047000052B000000801912052B000000D8110088
:10048000000063B003780612052B00000000000096
:1004900013400D63B003780612052B00000080198D
:1004A00012052B000000D81100000063B00378068D
:1004B00012052B00000000000013400D63B003780C
:1004C0000612052B000000801912052B000000D831
:1004D0001100000063B003780612052B0000000035
:1004E000000013401163B0037806E0000000000034
:1004F00000D935008038D91612052B00D8300000FD
:100500000063B003780612052B0000008020E00095
:100510000000D81400000000000000000063B003D9
:10052000780612052B0203C30203C3000022000059
:1005300053B0FC12052B12052B12052B00000000F6
:100540000000000000000043B00122740900000018
:100550000000001470F7000000000000007B067A25
:10056000017917780C778002058BE5B05403605F42
:100570006A1313F733C2E1FA00500B000000DB0BE3
:100580001206CB02058B7B0602058B00E5B05403F7
:10059000603D6AC2E213FA09E8603400500A0000C4
:1005A000DB0A1206CB0205AC7B060000E5B0540363
:1005B000601D6AC2E213FA0000500D000000000046
:1005C000DB321206CB0205F47B0600000205F47450
:1005D0000D98F50A120006E50D550C700122C2892E
:1005E000D2AF750C00D0E0D0E0900229C082C08369
:1005F00075D00032E5B0540360D56AC2E213FA0048
:1006000000500D0000000000DB0D1206CB020617A3
:100610007B060000000000E5B0540360B26AC2E24D
:1006200013FA0000500D0000000000DB0D1206CB95
:1006300002063A7B060000000000E5B0540360406B
:100640006AC2E213FA0000500D0000000000DB0D4A
:100650001206CB02065D7B060000000000E5B054E8
:1006600003601D6AC2E213FA0000500D0000000092
:1006700000DB321206CB0206A57B0600000206A5AF
:10068000740D98F50A120006E50D550C700122C292
:1006900089D2AF750C00D0E0D0E0900229C082C0B2
:1006A0008375D00032E5B0540360D56AC2E213FA14
:1006B000180050100000DB090000001206CB0205F4
:1006C0006A02056A7B06000002056A7B0600EAB240
:1006D000E0FA000000000022152BA82BA605152B20
:1006E000152B152BA82BA60308A60208A601152B6F
:1006F000152B152B90010D7480F0750E02E52B243F
:1007000007F8E66006900000744BF0E52B2406F82D
:10071000E6FF7E00D3940074809480500302083A70
:10072000900000E0FD90010EF0ED644B9000007031
:100730000574C3F08003744BF0C3EF9408EE64803B
:1007400094804058A82B0808E4F6A82B0808E6C3B4
:10075000940874809480502FE52B2403F8860308B6
:10076000E6FA08E6F9A82B0808E6FFF5827583008B
:10077000120A8CFE740F2FF582E43401F583EEF03B
:10078000A82B08080680C3E52B2403120841750B2B
:100790000CE52B2406F874F826F68062A82B0808CE
:1007A0007602E52B2406F8E62402FFE433FEA82BAC
:1007B0000808E6C39FEE6480F8748098502AE52B01
:1007C0002403F88603080806E6188602700106145A
:1007D000F9120A73FFA82B0808E6240DF582E43409
:1007E00001F583EFF00680BAE52B2406F8E6FF1248
:1007F000084EE52B2406F8E62404F50BE4F69001F8
:100800000BE0FEA3E0A82BA60608F6E50B7003029A
:10081000070BE50E64026002801DA82BE6FE08E6C9
:10082000FFC390010CE09FFF90010BE09EFED3EF11
:100830009405EE940040D4E4F50BE52B2408F52B49
:1008400022F87408080826F618E436F67F08152BF7
:10085000A82BA607152B152B152BA82B74FFF60814
:10086000F6A82B08087602E52B2403F8E616603F6D
:10087000A82B0808E6240DF582E43401F583E0FF97
:10088000A82BE6FC08E6FDEF6D25E0FFE433FE74DF
:10089000452FF582740D3EF583ECFFE493FE740161
:1008A000936FA82BA60608F6A82B08080680B8A800
:1008B0002BE6FE08E6F4FFEEF4A82BF608A607A840
:1008C0002BE6FE08E6FDA82B0808E6FC240DF582C1
:1008D000E43401F583EDF0EEFF740E2CF582E43480
:1008E00001F583EFF0E52B2404F52B22787FE4F665
:1008F000D8FD75812B020933020C2AE493A3F8E496
:1009000093A34003F68001F208DFF48029E493A367
:10091000F85407240CC8C333C4540F4420C8834080
:1009200004F456800146F6DFE4800B01020408104F
:10093000204080900B85E47E019360BCA3FF543F70
:1009400030E509541FFEE493A360010ECF54C02587
:10095000E060A840B8E493A3FAE493A3F8E493A377
:10096000C8C582C8CAC583CAF0A3C8C582C8CAC5DB
:1009700083CADFE9DEE780BE43B20353B1FC12094C
:10098000EB63B0031209EB63B0031209EB63B0032E
:100990001209EB63B0031209EB63B0031209EB63B6
:1009A000B0031209EB63B0031209EB1209EB006309
:1009B000B0031209EB1209EB0063B0031209EB124A
:1009C00009EB1209EB000063B0031209EB1209EB0B
:1009D0000063B0031209EB53B0FC1209EB1209EBF0
:1009E0000043B00153B2FC43B103220000000000F9
:1009F0000000000000002243B20353B1FC63B003C7
:100A0000120A6763B003120A6763B003120A6763CE
:100A1000B003120A6763B003120A6763B003120AD5
:100A20006763B003120A67120A670063B003120A11
:100A300067120A670063B003120A6763B003120A01
:100A400067120A670063B003120A67120A67120A84
:100A500067000053B0FC120A67120A670043B00136
:100A600053B2FC43B103220000000000000000006C
:100A7000000022BB010689828A83E0225002E7221D
:100A8000BBFE02E32289828A83E49322BB010CE548
:100A90008229F582E5833AF583E0225006E9258232
:100AA000F8E622BBFE06E92582F8E222E58229F576
:100AB00082E5833AF583E49322BB010689828A8327
:100AC000F0225002F722BBFE01F322F8BB010DE534
:100AD0008229F582E5833AF583E8F0225006E9257C
:100AE00082C8F622BBFE05E92582C8F222152B1525
:100AF0002B750E0290010D7480F0A3744BF0E4A3EB
:100B0000F0A3F0750B0490010BE0FEA3E0A82BA668
:100B10000608F6E50B6028E50E64026002801DA859
:100B20002BE6FE08E6FFC390010CE09FFF90010B4F
:100B3000E09EFED3EF9405EE940040D7E4F50B055C
:100B40002B052B22C0E0C0F0C083C082C0D075D07E
:100B500000C000C001C002C003C004C005C006C080
:100B600007C2AF12054BC289D2AFD007D006D0055D
:100B7000D004D003D002D001D000D0D0D082D08316
:100B8000D0F0D0E032010B00010A00010C01010D90
:100B90000142010B0000090E0000000000000000EF
:100BA000FF01080000D007D006D005D004D003D044
:100BB00002D001D000D0D0D082D083D0F0D0E07568
:100BC0000C0122EF1FAC0670011E4C6012000000E9
:100BD0000000000000000000000000000080E4228F
:100BE000ED30E005EF42B28004EFF452B2ED30E1B7
:100BF00004EF42B122EFF452B122AB07AA06EB1B7D
:100C0000AE0270011A4E60097FE77E03120BC380AB
:100C1000ED22E5B054FC4401F5B043B20353B1FCFE
:100C20001203BB53B2FC43B10322120C657F327E28
:100C300000120BFA120C7A43870180FBE5B054FCDA
:100C40004401F5B07D027F07020BE090010D748036
:100C5000F0A3741EF0750B022243B80143B701D212
:100C60008843A88122C2AF53B0FC7D017F03020BF1
:100C7000E08B278A2889298D2A22120C3C020C59E4
:100C8000120110010000000834127856129001027F
:100C9000030105010900A101150026FF0075088563
:100CA0000195F809008102850295070900910285E6
:100CB00003950F090091028504951F090091028593
:100CC00005953F090091028506957F0900910285EF
:100CD0000795F709009102C009021B00010100807D
:100CE0003209040000000300000009210101000195
:100CF00022460016035400680061006E0068002060
:100D0000005400F9006E0067001A035300540043BA
:100D100000380046002000550053004200480049BA
:100D20000044001603320031002D00300033002D46
:100D300000320030003100390000000000000000E7
:100D400000040309040000C0C1C1810140C30103C4
:100D5000C00280C241C60106C00780C7410500C568
:100D6000C1C4810440CC010CC00D80CD410F00CF27
:100D7000C1CE810E400A00CAC1CB810B40C9010916
:100D8000C00880C841D80118C01980D9411B00DBB8
:100D9000C1DA811A401E00DEC1DF811F40DD011D66
:100DA000C01C80DC411400D4C1D5811540D7011787
:100DB000C01680D641D20112C01380D3411100D198
:100DC000C1D0811040F00130C03180F1413300F3D7
:100DD000C1F28132403600F6C1F7813740F5013566
:100DE000C03480F4413C00FCC1FD813D40FF013F27
:100DF000C03E80FE41FA013AC03B80FB413900F918
:100E0000C1F88138402800E8C1E9812940EB012B75
:100E1000C02A80EA41EE012EC02F80EF412D00ED67
:100E2000C1EC812C40E40124C02580E5412700E786
:100E3000C1E68126402200E2C1E3812340E1012195
:100E4000C02080E041A00160C06180A1416300A397
:100E5000C1A28162406600A6C1A7816740A5016565
:100E6000C06480A4416C00ACC1AD816D40AF016F26
:100E7000C06E80AE41AA016AC06B80AB416900A917
:100E8000C1A88168407800B8C1B9817940BB017BB5
:100E9000C07A80BA41BE017EC07F80BF417D00BD67
:100EA000C1BC817C40B40174C07580B5417700B786
:100EB000C1B68176407200B2C1B3817340B1017195
:100EC000C07080B041500090C19181514093015356
:100ED000C052809241960156C05780974155009567
:100EE000C1948154409C015CC05D809D415F009F26
:100EF000C19E815E405A009AC19B815B4099015915
:100F0000C058809841880148C0498089414B008B76
:100F1000C18A814A404E008EC18F814F408D014D64
:100F2000C04C808C41440084C18581454087014785
:100F3000C046808641820142C04380834141008196
:050F4000C1808140406A
:00000001FF
