:10000000020950020B7415271527E4F50DAF18EF00
:1000100064E17018E519547FA827F6E6FF651060C3
:1000200006EF6003020288750E03801DAF18EF64AF
:100030002D702BE519547FA827F6E6FF65106006A2
:10004000EF6003020288750E01E519C413131354FF
:1000500001F513E51A540725E04213020288E5185A
:1000600024B570030201A524F170030202882497CD
:10007000603624F170030202802469600302028565
:10008000E519547FA827F6E6FF65106006EF6003C8
:10009000020288E50B6008120C5FE4F50B80031286
:1000A00009DC750E02020288E50E6403600302019A
:1000B00065E509644B600302015874012508F58267
:1000C000E43400AF82A827F608A607A827E6FE08B2
:1000D000E6FFF5828E83E519F0A3E51AF08F828E94
:1000E00083A3A3E51BF08F828E83A3A3A3E51CF05B
:1000F0008F828E83E5822404F582E43583F583E5DF
:100100001DF08F828E83E5822405F582E43583F528
:1001100083E51EF08F828E83E5822406F582E43526
:1001200083F583E51FF08F828E83E5822407F582B5
:10013000E43583F583E520F0120A5B74082508F5A1
:1001400008C39516E495154009751101E4F50B7582
:100150000D017509C302026D7F017E00120C1012A1
:100160000A5B02026DE50E640160030202889000E2
:10017000FDE519F0A3E51AF0A3E51BF0A3E51CF0DB
:10018000A3E51DF0A3E51EF0A3E51FF07509C3E488
:10019000F508750F01750D01120A5BAF1F7515008B
:1001A0008F16020288E50E64036003020288AF0A1C
:1001B000D3EF9404748094805003020272E50964C2
:1001C000C3600302026374012508F582E43400AFC2
:1001D00082A827F608A607A827E6FE08E6FFF5820C
:1001E0008E83E519F0A3E51AF08F828E83A3A3E531
:1001F0001BF08F828E83A3A3A3E51CF08F828E83D6
:10020000E5822404F582E43583F583E51DF08F82D1
:100210008E83E5822405F582E43583F583E51EF0BF
:100220008F828E83E5822406F582E43583F583E5AB
:100230001FF08F828E83E5822407F582E43583F5F3
:1002400083E520F0120A5B74082508F508C39516AB
:10025000E495154009751101E4F50B750D0175095B
:100260004B800A7F017E00120C10120A5BE4F50F2E
:100270008016E4F50B7F01FE120C10120A5B800859
:100280007512018003E4F50E0527052722E50F64AA
:100290000160030203CCF50F9000FDE06480600371
:1002A000020360A3E064066003020358900100E0CB
:1002B00024FE601B146040240260030203CC152757
:1002C000A82776017D127BFF7A0C79C70203C990BB
:1002D0000103E0C3941B74809480500A1527A8275B
:1002E0007601E0FD80081527A82776017D1B7BFF9E
:1002F0007A0D791F0203C99000FFE070101527A83E
:100300002776017D047BFF7A0D798880469000FF77
:10031000E0640170101527A82776017D167BFF7A0F
:100320000D793A802E9000FFE0640270101527A826
:100330002776017D1A7BFF7A0D795080169000FF99
:10034000E0640370381527A82776017D167BFF7AB5
:100350000D796A12073C80259000FEE0706E804E99
:100360009000FDE0701CA3E024F760112404705C91
:10037000AF10120AD79000FFE0F510804F120AD795
:10038000804A9000FDE064817016A3E06406703C32
:100390001527A82776017D467BFF7A0C79D980291D
:1003A0009000FDE06421700BA3E0640A701E120C43
:1003B0009880199000FDE064A170111527A8277698
:1003C000017D087BFF7A0D798012073CE511604CB6
:1003D000E4F512120AD790010BE0FFA3E090011D93
:1003E000CFF0A3EFF0E4F511F50FE51270239001C3
:1003F0001DE0FEA3E0FFC390010CE09FFF90010B06
:10040000E09EFED3EF9405EE940040DE120BD58003
:10041000D9AD167B017A007901120BF3020BD57866
:100420000690010DA90BE013400D63B0037806A3FD
:1004300012058F0000801912058FA30000D811004B
:10044000000063B003780612058F00000000000072
:1004500013400D63B003780612058F000000801969
:1004600012058F000000D81100000063B003780669
:1004700012058F00000000000013400D63B00378E8
:100480000612058F000000801912058F000000D8A9
:100490001100000063B003780612058F0000000011
:1004A000000013400D63B003780612058F000000B2
:1004B000801912058F000000D81100000063B003FE
:1004C000780612058F00000000000013400D63B095
:1004D00003780612058F000000801912058F0000B6
:1004E00000D81100000063B003780612058F0000E9
:1004F0000000000013400D63B003780612058F0062
:100500000000801912058F000000D8110000006360
:10051000B003780612058F00000000000013400DA4
:1005200063B003780612058F000000801912058F52
:10053000000000D81100000063B003780612058F98
:1005400000000000000013401163B0037806E000D3
:100550000000000000D935008038D91612058F0040
:10056000D83000000063B003780612058F00000049
:100570008020E0000000D81400000000000000000F
:100580000063B003780612058F02042702042700D7
:100590000022000053B0FC12058F12058F12058F48
:1005A000000000000000000000000043B0012274C1
:1005B000090000000000001470F7000000000000B7
:1005C000007B067A017917780C77800205EFE5B099
:1005D0005403605F6A1313F733C2E1FA00500B0053
:1005E0000000DB0B12072F0205EF7B060205EF0070
:1005F000E5B05403603D6AC2E213FA09E8603400D2
:10060000500A0000DB0A12072F0206107B060000CA
:10061000E5B05403601D6AC2E213FA0000500D00F9
:1006200000000000DB3212072F0206587B06000094
:10063000020658740D98F50A120CC4E50D550C709D
:100640000122C289D2AF750C00D0E0D0E090028DBB
:10065000C082C08375D00032E5B0540360D56AC251
:10066000E213FA0000500D0000000000DB0D12073D
:100670002F02067B7B060000000000E5B0540360FB
:10068000B26AC2E213FA0000500D0000000000DB65
:100690000D12072F02069E7B060000000000E5B049
:1006A000540360406AC2E213FA0000500D000000DB
:1006B0000000DB0D12072F0206C17B0600000000C0
:1006C00000E5B05403601D6AC2E213FA0000500D49
:1006D0000000000000DB3212072F0207097B060032
:1006E00000020709740D98F50A120CC4E50D550CAB
:1006F000700122C289D2AF750C00D0E0D0E0900228
:100700008DC082C08375D00032E5B0540360D56AD5
:10071000C2E213FA180050100000DB0900000012BA
:10072000072F0205CE0205CE7B0600000205CE7B18
:100730000600EAB2E0FA0000000000221527A82710
:10074000A605152715271527A827A60308A602081A
:10075000A60115271527152790010D7480F0750E39
:1007600002E5272407F8E66006900000744BF0E5E8
:10077000272406F8E6FF7E00D3940074809480500E
:100780000302089E900000E0FD90010EF0ED644B26
:10079000900000700574C3F08003744BF0C3EF94B5
:1007A00008EE648094804058A8270808E4F6A8273B
:1007B0000808E6C3940874809480502FE52724032A
:1007C000F8860308E6FA08E6F9A8270808E6FFF520
:1007D00082758300120B47FE740F2FF582E43401FB
:1007E000F583EEF0A82708080680C3E52724031246
:1007F00008A5750B0CE5272406F874F826F6806228
:10080000A82708087602E5272406F8E62402FFE474
:1008100033FEA8270808E6C39FEE6480F87480982A
:10082000502AE5272403F88603080806E6188602FE
:1008300070010614F9120B2EFFA8270808E6240DF4
:10084000F582E43401F583EFF00680BAE52724064B
:10085000F8E6FF1208B2E5272406F8E62404F50BB3
:10086000E4F690010BE0FEA3E0A827A60608F6E553
:100870000B700302076FE50E64026002801DA8275B
:10088000E6FE08E6FFC390010CE09FFF90010BE03D
:100890009EFED3EF9405EE940040D4E4F50BE527DB
:1008A0002408F52722F87408080826F618E436F616
:1008B0007F081527A827A607152715271527A82776
:1008C00074FFF608F6A82708087602E5272403F83F
:1008D000E616603FA8270808E6240DF582E43401F7
:1008E000F583E0FFA827E6FC08E6FDEF6D25E0FFB5
:1008F000E433FE748C2FF582740D3EF583ECFFE437
:1009000093FE7401936FA827A60608F6A827080887
:100910000680B8A827E6FE08E6F4FFEEF4A827F65E
:1009200008A607A827E6FE08E6FDA8270808E6FCB3
:10093000240DF582E43401F583EDF0EEFF740E2C06
:10094000F582E43401F583EFF0E5272404F527224E
:10095000787FE4F6D8FD758127020997020C77E4C9
:1009600093A3F8E493A34003F68001F208DFF48038
:1009700029E493A3F85407240CC8C333C4540F4488
:1009800020C8834004F456800146F6DFE4800B0162
:1009900002040810204080900BB5E47E019360BCF7
:1009A000A3FF543F30E509541FFEE493A360010EFA
:1009B000CF54C025E060A840B8E493A3FAE493A321
:1009C000F8E493A3C8C582C8CAC583CAF0A3C8C542
:1009D00082C8CAC583CADFE9DEE780BE43B20353DB
:1009E000B1FC120A4F63B003120A4F63B003120A3C
:1009F0004F63B003120A4F63B003120A4F63B00390
:100A0000120A4F63B003120A4F63B003120A4F1267
:100A10000A4F0063B003120A4F120A4F0063B0037B
:100A2000120A4F120A4F120A4F000063B003120A53
:100A30004F120A4F0063B003120A4F53B0FC120A60
:100A40004F120A4F0043B00153B2FC43B1032200DE
:100A5000000000000000000000002243B20353B178
:100A6000FC63B003120ACB63B003120ACB63B0037A
:100A7000120ACB63B003120ACB63B003120ACB6332
:100A8000B003120ACB63B003120ACB120ACB006385
:100A9000B003120ACB120ACB0063B003120ACB6375
:100AA000B003120ACB120ACB0063B003120ACB12B6
:100AB0000ACB120ACB000053B0FC120ACB120ACBAD
:100AC0000043B00153B2FC43B10322000000000018
:100AD0000000000000002215271527750E02900166
:100AE0000D7480F0A3744BF0E4A3F0A3F0750B0435
:100AF00090010BE0FEA3E0A827A60608F6E50B6030
:100B000028E50E64026002801DA827E6FE08E6FFC5
:100B1000C390010CE09FFF90010BE09EFED3EF9489
:100B200005EE940040D7E4F50B0527052722BB010D
:100B30000689828A83E0225002E722BBFE02E3227A
:100B400089828A83E49322BB010CE58229F582E540
:100B5000833AF583E0225006E92582F8E622BBFEBF
:100B600006E92582F8E222E58229F582E5833AF555
:100B700083E49322C0E0C0F0C083C082C0D075D0AF
:100B800000C000C001C002C003C004C005C006C050
:100B900007C2AF1205AFC289D2AFD007D006D005C9
:100BA000D004D003D002D001D000D0D0D082D083E6
:100BB000D0F0D0E032010B00010A00010C01010D60
:100BC0000142010B0000090E0000000000000000BF
:100BD000FF01080000D007D006D005D004D003D014
:100BE00002D001D000D0D0D082D083D0F0D0E07538
:100BF0000C01221527A827A605152715271527A8B4
:100C000027A60308A60208A601E5272404F5272243
:100C1000EF1FAC0670011E4C6012000000000000C7
:100C20000000000000000000000080E422ED30E041
:100C300005EF42B28004EFF452B2ED30E104EF422E
:100C4000B122EFF452B122AB07AA06EB1BAE027041
:100C5000011A4E60097FE77E03120C1080ED22E539
:100C6000B054FC4401F5B043B20353B1FC12041F6D
:100C700053B2FC43B10322120CB27F327E00120C3D
:100C800047120CBE43870180FBE5B054FC4401F5DC
:100C9000B07D027F07020C2D90010D7480F0A374CB
:100CA0001EF0750B022243B80143B701D28843A856
:100CB0008122C2AF53B0FC7D017F03020C2D120CC8
:100CC00089020CA60200061201100100000008347F
:100CD00012785612900102030105010900A10115C5
:100CE0000026FF007508850195F80900810285023C
:100CF0009507090091028503950F0900910285046B
:100D0000951F090091028505953F0900910285060E
:100D1000957F09009102850795F709009102C009A6
:100D2000021B0001010080320904000000030000E2
:100D30000009210101000122460016035400680049
:100D400061006E00680020005400F9006E0067002A
:100D50001A03530054004300380046002000550099
:100D6000530042004800490044001603320031009D
:100D70002D00300033002D003200300031003900EA
:100D80000000000000000000040309040000C0C1CE
:100D9000C1810140C30103C00280C241C60106C037
:100DA0000780C7410500C5C1C4810440CC010CC007
:100DB0000D80CD410F00CFC1CE810E400A00CAC1C7
:100DC000CB810B40C90109C00880C841D80118C0B7
:100DD0001980D9411B00DBC1DA811A401E00DEC137
:100DE000DF811F40DD011DC01C80DC411400D4C127
:100DF000D5811540D70117C01680D641D20112C047
:100E00001380D3411100D1C1D0811040F00130C016
:100E10003180F1413300F3C1F28132403600F6C136
:100E2000F7813740F50135C03480F4413C00FCC106
:100E3000FD813D40FF013FC03E80FE41FA013AC0C6
:100E40003B80FB413900F9C1F88138402800E8C1F6
:100E5000E9812940EB012BC02A80EA41EE012EC036
:100E60002F80EF412D00EDC1EC812C40E40124C026
:100E70002580E5412700E7C1E68126402200E2C146
:100E8000E3812340E10121C02080E041A00160C056
:100E90006180A1416300A3C1A28162406600A6C136
:100EA000A7816740A50165C06480A4416C00ACC106
:100EB000AD816D40AF016FC06E80AE41AA016AC0C6
:100EC0006B80AB416900A9C1A88168407800B8C1B6
:100ED000B9817940BB017BC07A80BA41BE017EC036
:100EE0007F80BF417D00BDC1BC817C40B40174C026
:100EF0007580B5417700B7C1B68176407200B2C146
:100F0000B3817340B10171C07080B041500090C195
:100F100091815140930153C052809241960156C035
:100F200057809741550095C1948154409C015CC005
:100F30005D809D415F009FC19E815E405A009AC1C5
:100F40009B815B40990159C058809841880148C0F5
:100F5000498089414B008BC18A814A404E008EC135
:100F60008F814F408D014DC04C808C41440084C125
:100F700085814540870147C046808641820142C045
:0C0F800043808341410081C180814040DA
:00000001FF
