:1000000002093C020B6915231523E4F50DAF18EF27
:1000100064E17018E519547FA823F6E6FF651060C7
:1000200006EF60030202A3750E03801DAF18EF6494
:100030002D702BE519547FA823F6E6FF65106006A6
:10004000EF60030202A3750E01E519C413131354E4
:1000500001F513E51A540725E042130202A3E5183F
:1000600024B570030201BD24F170030202A324979A
:10007000603624F1700302029B246960030202A02F
:10008000E519547FA823F6E6FF65106006EF6003CC
:100090000202A3E50B6008120C57E4F50B80031273
:1000A00009C8750E020202A3E50E64036003020193
:1000B00065E509644B600302015874012508F58267
:1000C000E43400AF82A823F608A607A823E6FE08BA
:1000D000E6FFF5828E83E519F0A3E51AF08F828E94
:1000E00083A3A3E51BF08F828E83A3A3A3E51CF05B
:1000F0008F828E83E5822404F582E43583F583E5DF
:100100001DF08F828E83E5822405F582E43583F528
:1001100083E51EF08F828E83E5822406F582E43526
:1001200083F583E51FF08F828E83E5822407F582B5
:10013000E43583F583E520F0120A4774082508F5B5
:1001400008C39516E495154009751101E4F50B7582
:100150000D017509C30202857F017E00120C081291
:100160000A47020285E50E64016009E50E6402603B
:10017000030202A3900003E519F0A3E51AF0A3E53A
:100180001BF0A3E51CF0A3E51DF0A3E51EF0A3E51D
:100190001FF07509C3E4F508750F01AF19EF64216D
:1001A000700BAF1AEF64097004F50D8003750D0133
:1001B000120A47AF1F7515008F160202A3E50E64E1
:1001C0000360030202A3AF0AD3EF94047480948007
:1001D000500302028AE50964C3600302027B7401D2
:1001E0002508F582E43400AF82A823F608A607A804
:1001F00023E6FE08E6FFF5828E83E519F0A3E51AF3
:10020000F08F828E83A3A3E51BF08F828E83A3A33E
:10021000A3E51CF08F828E83E5822404F582E43509
:1002200083F583E51DF08F828E83E5822405F582B8
:10023000E43583F583E51EF08F828E83E582240604
:10024000F582E43583F583E51FF08F828E83E582A6
:100250002407F582E43583F583E520F0120A47741C
:10026000082508F508C39516E49515400975110190
:10027000E4F50B750D0175094B800A7F017E0012B4
:100280000C08120A47E4F50F8019E4F50B7F01FE14
:10029000120C08E4F50E120A47800875120180035B
:1002A000E4F50E052305232278069000FDA90BE056
:1002B00013400D63B0037806A312041800008019E0
:1002C000120418A30000D81100000063B0037806E0
:1002D00012041800000000000013400D63B0037802
:1002E000061204180000008019120418000000D83B
:1002F0001100000063B0037806120418000000002B
:10030000000013400D63B0037806120418000000CB
:100310008019120418000000D81100000063B00317
:10032000780612041800000000000013400D63B0AE
:100330000378061204180000008019120418000047
:1003400000D81100000063B0037806120418000002
:100350000000000013400D63B0037806120418007B
:1003600000008019120418000000D811000000637A
:10037000B003780612041800000000000013400DBE
:1003800063B00378061204180000008019120418E4
:10039000000000D81100000063B0037806120418B2
:1003A00000000000000013400D63B0037806120443
:1003B000180000008019120418000000D811000075
:1003C0000063B00378061204180000000000001358
:1003D000401163B0037806E0000000000000D9354A
:1003E000008038D91612041800D83000000063B01D
:1003F0000378061204180000008020E0000000D8F6
:100400001400000000000000000063B00378061232
:1004100004180202B00202B0000022000053B0FC37
:100420001204181204181204180000000000000042
:100430000000000043B00122740900000000000029
:100440001470F7000000000000007B067A017917A5
:10045000780C7780020478E5B05403605F6A131368
:10046000F733C2E1FA00500B000000DB0B1205B8B5
:100470000204787B0602047800E5B05403603D6A0C
:10048000C2E213FA09E8603400500A0000DB0A12E5
:1004900005B80204997B060000E5B05403601D6AAC
:1004A000C2E213FA0000500D0000000000DB32121F
:1004B00005B80204E17B0600000204E1740D98F522
:1004C0000A120CBCE50D550C700122C289D2AF7521
:1004D0000C00D0E0D0E0900BAAC082C08375D000A1
:1004E00032E5B0540360D56AC2E213FA0000500D41
:1004F0000000000000DB0D1205B80205047B0600B9
:1005000000000000E5B0540360B26AC2E213FA00D2
:1005100000500D0000000000DB0D1205B802052799
:100520007B060000000000E5B0540360406AC2E2B0
:1005300013FA0000500D0000000000DB0D1205B89A
:1005400002054A7B060000000000E5B05403601D70
:100550006AC2E213FA0000500D0000000000DB3216
:100560001205B80205927B060000020592740D98F0
:10057000F50A120CBCE50D550C700122C289D2AFF0
:10058000750C00D0E0D0E0900BAAC082C08375D07B
:100590000032E5B0540360D56AC2E213FA18005085
:1005A000100000DB090000001205B8020457020425
:1005B000577B0600000204577B0600EAB2E0FA000F
:1005C0000000000022E50F640160030206DBF50F66
:1005D000900003E064806003020677A3E064066095
:1005E0000302066F900006E024FE601514602E24BE
:1005F0000260030206DB7D127BFF7A0C79BF0206E4
:10060000D8900009E0C3941B748094805004E0FDEE
:1006100080027D1B7BFF7A0D79170206D8900005BA
:10062000E0700A7D047BFF7A0D79808034900005AC
:10063000E06401700A7D167BFF7A0D79328022908A
:100640000005E06402700A7D1A7BFF7A0D7948800C
:1006500010900005E0640370127D167BFF7A0D791F
:1006600062120732900000E0FF802D7F4B802990BE
:100670000004E07066804C900003E07020A3E0244A
:10068000F7601324047054AF107F4B120AC390001C
:1006900005E0F51080457F4B120AC3803E900003B1
:1006A000E064817010A3E0640670307D467BFF7AC1
:1006B0000C79D18023900003E06421700BA3E064E7
:1006C0000A7018120C908013900003E064A1700B64
:1006D0007D087BFF7A0D7978120732E5116052E4CC
:1006E000F5127F4B120AC39000FBE0FFA3E09001DC
:1006F00009CFF0A3EFF0E4F511F50FE512701F90AC
:100700000109E0FEA3E0FFC39000FCE09FFF900022
:10071000FBE09EFED3EF9405EE940040DE22AF1680
:100720001523A823A6077B017A007901AF13120BCA
:10073000EB221523A823A605152315231523A8238B
:10074000A60308A60208A601152315231523750E76
:10075000029000FD7480F0900000744BF0E52324BB
:1007600006F8E6FF7E00D394007480948050030264
:10077000088A900000E0FD9000FEF0ED644B9000D0
:1007800000700574C3F08003744BF0C3EF9408EE5F
:10079000648094804058A8230808E4F6A823080839
:1007A000E6C3940874809480502FE5232403F886D0
:1007B0000308E6FA08E6F9A8230808E6FFF58275BB
:1007C0008300120B3CFE74FF2FF582E43400F583A6
:1007D000EEF0A82308080680C3E52324031208913D
:1007E000750B0CE5232406F874F826F68062A8231E
:1007F00008087602E5232406F8E62402FFE433FE27
:10080000A8230808E6C39FEE6480F8748098502AF5
:10081000E5232403F88603080806E618860270011B
:100820000614F9120B23FFA8230808E624FDF5821D
:10083000E43400F583EFF00680BAE5232406F8E6F9
:10084000FF12089EE5232406F8E62404F50BE4F6DF
:100850009000FBE0FEA3E0A823A60608F6E50B70D7
:100860000302075DE50E6402701DA823E6FE08E69C
:10087000FFC39000FCE09FFF9000FBE09EFED3EFE3
:100880009405EE940040D6E4F50BE5232407F52308
:1008900022F87408080826F618E436F67F081523AF
:1008A000A823A607152315231523A82374FFF608EC
:1008B000F6A82308087602E5232403F8E616603F2D
:1008C000A8230808E624FDF582E43400F583E0FF60
:1008D000A823E6FC08E6FDEF6D25E0FFE433FE7497
:1008E000842FF582740D3EF583ECFFE493FE7401D2
:1008F000936FA823A60608F6A82308080680B8A8C0
:1009000023E6FE08E6F4FFEEF4A823F608A607A8FF
:1009100023E6FE08E6FDA8230808E6FC24FDF58290
:10092000E43400F583EDF0EEFF74FE2CF582E43440
:1009300000F583EFF0E5232404F52322787FE4F625
:10094000D8FD758123020983020C6FE493A3F8E4B8
:1009500093A34003F68001F208DFF48029E493A317
:10096000F85407240CC8C333C4540F4420C8834030
:1009700004F456800146F6DFE4800B0102040810FF
:10098000204080900BCBE47E019360BCA3FF543FDA
:1009900030E509541FFEE493A360010ECF54C02537
:1009A000E060A840B8E493A3FAE493A3F8E493A327
:1009B000C8C582C8CAC583CAF0A3C8C582C8CAC58B
:1009C00083CADFE9DEE780BE43B20353B1FC120AFB
:1009D0003B63B003120A3B63B003120A3B63B003EC
:1009E000120A3B63B003120A3B63B003120A3B6373
:1009F000B003120A3B63B003120A3B120A3B0063C6
:100A0000B003120A3B120A3B0063B003120A3B1206
:100A10000A3B120A3B000063B003120A3B120A3B76
:100A20000063B003120A3B53B0FC120A3B120A3BAC
:100A30000043B00153B2FC43B103220000000000A8
:100A40000000000000002243B20353B1FC63B00376
:100A5000120AB763B003120AB763B003120AB7638E
:100A6000B003120AB763B003120AB763B003120AE5
:100A7000B763B003120AB7120AB70063B003120AD1
:100A8000B7120AB70063B003120AB763B003120AC1
:100A9000B7120AB70063B003120AB7120AB7120AF4
:100AA000B7000053B0FC120AB7120AB70043B001F6
:100AB00053B2FC43B103220000000000000000001C
:100AC0000000221523A823A60715231523750E025F
:100AD0009000FD7480F0A8230808E6A3F0E4A3F0DA
:100AE000A3F0750B049000FBE0FEA3E0A823A6068C
:100AF00008F6E50B6026E50E6402701DA823E6FEED
:100B000008E6FFC39000FCE09FFF9000FBE09EFE24
:100B1000D3EF9405EE940040D9E4F50B05230523AB
:100B2000052322BB010689828A83E0225002E72244
:100B3000BBFE02E32289828A83E49322BB010CE597
:100B40008229F582E5833AF583E0225006E9258281
:100B5000F8E622BBFE06E92582F8E222E58229F5C5
:100B600082E5833AF583E49322C0E0C0F0C083C0FD
:100B700082C0D075D000C000C001C002C003C00454
:100B8000C005C006C007C2AF120438C289D2AFD0B8
:100B900007D006D005D004D003D002D001D000D0B9
:100BA000D0D082D083D0F0D0E0321205C5D007D0AB
:100BB00006D005D004D003D002D001D000D0D0D0D0
:100BC00082D083D0F0D0E0750C0122010B00010A25
:100BD00000010C01010D014200FB0000090E0000A4
:100BE000000000000000FF01080000152315231578
:100BF00023A823A60308A60208A6011523A823A656
:100C000007E5232405F52322EF1FAC0670011E4CD7
:100C10006012000000000000000000000000000062
:100C2000000080E422ED30E005EF42B28004EFF4F2
:100C300052B2ED30E104EF42B122EFF452B122ABF7
:100C400007AA06EB1BAE0270011A4E60097FE77E11
:100C500003120C0880ED22E5B054FC4401F5B043CA
:100C6000B20353B1FC1202A853B2FC43B1032212E7
:100C70000CAA7F327E00120C3F120CB64387018013
:100C8000FBE5B054FC4401F5B07D027F07020C2562
:100C90009000FD7480F0A3741EF0750B022243B81F
:100CA0000143B701D28843A88122C2A853B0FC7D7A
:100CB000017F03020C25120C81020C9E0200061219
:100CC000011001000000083412785612900102034E
:100CD0000105010900A101150026FF007508850125
:100CE00095F80900810285029507090091028503A4
:100CF000950F090091028504951F09009102850551
:100D0000953F090091028506957F090091028507AC
:100D100095F709009102C009021B00010100803211
:100D20000904000000030000000921010100012264
:100D3000460016035400680061006E006800200041
:100D40005400F9006E0067001A035300540043007A
:100D5000380046002000550053004200480049007A
:100D600044001603320031002D00300033002D0006
:100D700032003000310039000000000000000000A7
:100D8000040309040000C0C1C1810140C30103C0C4
:100D90000280C241C60106C00780C7410500C5C127
:100DA000C4810440CC010CC00D80CD410F00CFC1E7
:100DB000CE810E400A00CAC1CB810B40C90109C0D7
:100DC0000880C841D80118C01980D9411B00DBC177
:100DD000DA811A401E00DEC1DF811F40DD011DC027
:100DE0001C80DC411400D4C1D5811540D70117C047
:100DF0001680D641D20112C01380D3411100D1C157
:100E0000D0811040F00130C03180F1413300F3C196
:100E1000F28132403600F6C1F7813740F50135C026
:100E20003480F4413C00FCC1FD813D40FF013FC0E6
:100E30003E80FE41FA013AC03B80FB413900F9C1D6
:100E4000F88138402800E8C1E9812940EB012BC036
:100E50002A80EA41EE012EC02F80EF412D00EDC126
:100E6000EC812C40E40124C02580E5412700E7C146
:100E7000E68126402200E2C1E3812340E10121C056
:100E80002080E041A00160C06180A1416300A3C156
:100E9000A28162406600A6C1A7816740A50165C026
:100EA0006480A4416C00ACC1AD816D40AF016FC0E6
:100EB0006E80AE41AA016AC06B80AB416900A9C1D6
:100EC000A88168407800B8C1B9817940BB017BC076
:100ED0007A80BA41BE017EC07F80BF417D00BDC126
:100EE000BC817C40B40174C07580B5417700B7C146
:100EF000B68176407200B2C1B3817340B10171C056
:100F00007080B041500090C191815140930153C015
:100F100052809241960156C057809741550095C125
:100F2000948154409C015CC05D809D415F009FC1E5
:100F30009E815E405A009AC19B815B40990159C0D5
:100F400058809841880148C0498089414B008BC135
:100F50008A814A404E008EC18F814F408D014DC025
:100F60004C808C41440084C185814540870147C045
:100F700046808641820142C043808341410081C155
:040F800080814040EC
:00000001FF
