:100000000208FE020B1415221522E4F50DAF17EFBE
:1000100064E17018E518547FA822F6E6FF651060C9
:1000200006EF6003020294750E03801DAF17EF64A4
:100030002D702BE518547FA822F6E6FF65106006A8
:10004000EF6003020294750E01E518C413131354F4
:1000500001F513E519540725E04213020294E51750
:1000600024B570030201AE24F170030202942497B8
:10007000603624F1700302028C246960030202914D
:10008000E518547FA822F6E6FF65106006EF6003CE
:10009000020294E50B6008120C00E4F50B800312D9
:1000A000098A750E02020294E50E640360030201E0
:1000B00065E509644B600302015874012508F58267
:1000C000E43400AF82A822F608A607A822E6FE08BC
:1000D000E6FFF5828E83E518F0A3E519F08F828E96
:1000E00083A3A3E51AF08F828E83A3A3A3E51BF05D
:1000F0008F828E83E5822404F582E43583F583E5DF
:100100001CF08F828E83E5822405F582E43583F529
:1001100083E51DF08F828E83E5822406F582E43527
:1001200083F583E51EF08F828E83E5822407F582B6
:10013000E43583F583E51FF0120A0974082508F5F4
:1001400008C39515E495144009751101E4F50B7584
:100150000D017509C30202767F017E00120BB112F8
:100160000A09020276900003E518F0A3E519F0A34E
:10017000E51AF0A3E51BF0A3E51CF0A3E51DF0A331
:10018000E51EF07509C3E4F508750F01AF18EF64BB
:1001900021700BAF19EF64097004F50D8003750D24
:1001A00001120A09AF1E7514008F15020294E50EA4
:1001B00064036003020294AF0AD3EF940474809442
:1001C00080500302027BE50964C3600302026C7481
:1001D000012508F582E43400AF82A822F608A607BC
:1001E000A822E6FE08E6FFF5828E83E518F0A3E577
:1001F00019F08F828E83A3A3E51AF08F828E83A3DA
:10020000A3A3E51BF08F828E83E5822404F582E4AC
:100210003583F583E51CF08F828E83E5822405F516
:1002200082E43583F583E51DF08F828E83E5822499
:1002300006F582E43583F583E51EF08F828E83E533
:10024000822407F582E43583F583E51FF0120A095D
:1002500074082508F508C39515E49514400975112F
:1002600001E4F50B750D0175094B800A7F017E00D5
:10027000120BB1120A09E4F50F8019E4F50B7F01A6
:10028000FE120BB1E4F50E120A0980087512018006
:1002900003E4F50E052205222278069000FCA90B46
:1002A000E013400D63B0037806A312040900008038
:1002B00019120409A30000D81100000063B00378EC
:1002C0000612040900000000000013400D63B00393
:1002D00078061204090000008019120409000000C9
:1002E000D81100000063B003780612040900000072
:1002F00000000013400D63B00378061204090000EB
:10030000008019120409000000D81100000063B039
:1003100003780612040900000000000013400D637A
:10032000B0037806120409000000801912040900C5
:100330000000D81100000063B00378061204090021
:10034000000000000013400D63B00378061204099A
:100350000000008019120409000000D811000000FC
:1003600063B0037806120409000000000000134087
:100370000D63B0037806120409000000801912040E
:1003800009000000D81100000063B00378061204D1
:100390000900000000000013400D63B0037806124E
:1003A00004090000008019120409000000D811009F
:1003B000000063B00378061204090000000000008A
:1003C00013401163B0037806E0000000000000D97C
:1003D00035008038D91612040900D83000000063B7
:1003E000B00378061204090000008020E00000003D
:1003F000D81400000000000000000063B00378067D
:100400001204090202A10202A1000022000053B05E
:10041000FC12040912040912040900000000000083
:10042000000000000043B001227409000000000039
:10043000001470F7000000000000007B067A0179CC
:1004400016780C7780020469E5B05403605F6A1384
:1004500013F733C2E1FA00500B000000DB0B12056A
:10046000A90204697B0602046900E5B05403603DFB
:100470006AC2E213FA09E8603400500A0000DB0A9D
:100480001205A902048A7B060000E5B05403601D32
:100490006AC2E213FA0000500D0000000000DB32D7
:1004A0001205A90204D27B0600000204D2740D9842
:1004B000F50A120C65E50D550C700122C289D2AF08
:1004C000750C00D0E0D0E0900B55C082C08375D091
:1004D0000032E5B0540360D56AC2E213FA0000505E
:1004E0000D0000000000DB0D1205A90204F57B06DB
:1004F0000000000000E5B0540360B26AC2E213FAE3
:100500000000500D0000000000DB0D1205A90205DF
:10051000187B060000000000E5B0540360406AC28A
:10052000E213FA0000500D0000000000DB0D120580
:10053000A902053B7B060000000000E5B054036003
:100540001D6AC2E213FA0000500D0000000000DB3B
:10055000321205A90205837B060000020583740D93
:1005600098F50A120C65E50D550C700122C289D26E
:10057000AF750C00D0E0D0E0900B55C082C0837501
:10058000D00032E5B0540360D56AC2E213FA180015
:1005900050100000DB090000001205A90204480207
:1005A00004487B0600000204487B0600EAB2E0FA39
:1005B000000000000022E50F640160030206CCF594
:1005C0000F900003E064806003020668A3E0640605
:1005D0006003020660900006E024FE601514602EA1
:1005E000240260030206CC7D127BFF7A0C7968023C
:1005F00006C9900009E0C3941B748094805004E005
:10060000FD80027D1B7BFF7A0C79C00206C9900039
:1006100005E0700A7D047BFF7A0C79DB8034900062
:1006200005E06401700A7D167BFF7A0C79DF802279
:10063000900005E06402700A7D1A7BFF7A0C79F560
:100640008010900005E0640370127D167BFF7A0D28
:10065000790F120712900000E0FF802D7F4B802958
:10066000900004E07066804C900003E07020A3E0EE
:1006700024F7601324047054AF107F4B120A859046
:100680000005E0F51080457F4B120A85803E900002
:1006900003E064817010A3E0640670307D467BFF48
:1006A0007A0C797A8023900003E06421700BA3E038
:1006B000640A7018120C398013900003E064A17072
:1006C0000B7D087BFF7A0D7925120712E511604139
:1006D000E4F5127F4B120A859000FBE0900108F0D0
:1006E000E4F511F50FE5127015900108E0FF900098
:1006F000FBE0C39FD394057480948040E822AF153B
:100700001522A822A6077B017A007901AF13120BEC
:1007100094221522A822A605152215221522A82208
:10072000A60308A60208A60115221522750E02903E
:1007300000FC7480F0900000744BF0E5222405F872
:10074000E6FF7E00D3940074809480500302084D2D
:10075000900000E0FD9000FDF0ED644B9000007013
:100760000574C3F08003744BF0C3EF9408EE64800B
:1007700094804053A82208E4F6A82208E6C394080F
:1007800074809480502CA8220808860308E6FA0892
:10079000E6F9A82208E6FFF582758300120AE7FE53
:1007A00074FE2FF582E43400F583EEF0A8220806EB
:1007B00080C7A8220808120854750B0CE5222405EE
:1007C000F874F826F6805EA822087602E522240551
:1007D000F8E62402FFE433FEA82208E6C39FEE6495
:1007E00080F87480985028A8220808860308080614
:1007F000E618860270010614F9120ACEFFA8220834
:10080000E624FCF582E43400F583EFF00680BDE5D4
:10081000222405F8E6FF120860E5222405F8E62404
:1008200004F50BE4F69000FBE0A822F6E50B70035C
:1008300002073BE50E64027011A8229000FBE0C3A2
:1008400096D394057480948040E2E4F50BE522246D
:1008500006F522227408080826F618E436F67F0802
:100860001522A822A607152215221522A82274FFF8
:10087000F608F6A82208087602E5222403F8E61610
:10088000603FA8220808E624FCF582E43400F583E2
:10089000E0FFA822E6FC08E6FDEF6D25E0FFE4336B
:1008A000FE742D2FF582740D3EF583ECFFE493FE6C
:1008B0007401936FA822A60608F6A82208080680ED
:1008C000B8A822E6FE08E6F4FFEEF4A822F608A691
:1008D00007A822E6FE08E6FDA8220808E6FC24FC9C
:1008E000F582E43400F583EDF0EEFF74FD2CF58223
:1008F000E43400F583EFF0E5222404F52222787F2A
:10090000E4F6D8FD758122020945020C18E493A390
:10091000F8E493A34003F68001F208DFF48029E4B1
:1009200093A3F85407240CC8C333C4540F4420C8FD
:10093000834004F456800146F6DFE4800B01020494
:100940000810204080900B76E47E019360BCA3FFEA
:10095000543F30E509541FFEE493A360010ECF54C9
:10096000C025E060A840B8E493A3FAE493A3F8E4B8
:1009700093A3C8C582C8CAC583CAF0A3C8C582C824
:10098000CAC583CADFE9DEE780BE43B20353B1FCC8
:100990001209FD63B0031209FD63B0031209FD6380
:1009A000B0031209FD63B0031209FD63B00312091D
:1009B000FD63B0031209FD63B0031209FD1209FDC6
:1009C0000063B0031209FD1209FD0063B0031209B0
:1009D000FD1209FD1209FD000063B0031209FD12AA
:1009E00009FD0063B0031209FD53B0FC1209FD12AA
:1009F00009FD0043B00153B2FC43B10322000000E3
:100A000000000000000000002243B20353B1FC6369
:100A1000B003120A7963B003120A7963B003120AB1
:100A20007963B003120A7963B003120A7963B003E1
:100A3000120A7963B003120A79120A790063B003CB
:100A4000120A79120A790063B003120A7963B003BB
:100A5000120A79120A790063B003120A79120A792C
:100A6000120A79000053B0FC120A79120A79004385
:100A7000B00153B2FC43B1032200000000000000AB
:100A800000000000221522A822A6071522750E02DA
:100A90009000FC7480F0A82208E6A3F0E4A3F0A381
:100AA000F0750B049000FBE0A822F6E50B601AE558
:100AB0000E64027011A8229000FBE0C396D3940547
:100AC0007480948040E5E4F50B0522052222BB01E9
:100AD0000689828A83E0225002E722BBFE02E322DB
:100AE00089828A83E49322BB010CE58229F582E5A1
:100AF000833AF583E0225006E92582F8E622BBFE20
:100B000006E92582F8E222E58229F582E5833AF5B5
:100B100083E49322C0E0C0F0C083C082C0D075D00F
:100B200000C000C001C002C003C004C005C006C0B0
:100B300007C2AF120429C289D2AFD007D006D005B0
:100B4000D004D003D002D001D000D0D0D082D08346
:100B5000D0F0D0E0321205B6D007D006D005D004D0
:100B6000D003D002D001D000D0D0D082D083D0F03A
:100B7000D0E0750C0122010B00010A00010C0101FB
:100B80000D014100FB00080E00000000000000FF06
:100B900001080000152215221522A822A60308A686
:100BA0000208A6011522A822A607E5222405F5229F
:100BB00022EF1FAC0670011E4C6012000000000006
:100BC000000000000000000000000080E422ED3082
:100BD000E005EF42B28004EFF452B2ED30E104EFF1
:100BE00042B122EFF452B122AB07AA06EB1BAE02D0
:100BF00070011A4E60097FE77E03120BB180ED226F
:100C0000E5B054FC4401F5B043B20353B1FC120209
:100C10009953B2FC43B10322120C537F327E00126F
:100C20000BE8120C5F43870180FBE5B054FC4401E4
:100C3000F5B07D027F07020BCE9000FC7480F0A31C
:100C4000741EF0750B022243B80143B701D28843EA
:100C5000A88122C2A853B0FC7D017F03020BCE12F3
:100C60000C2A020C470200061201100100000008C5
:100C70003412785612900102030105010900A10106
:100C8000150026FF007508850195F8090081028589
:100C9000029507090091028503950F0900910285CD
:100CA00004951F090091028505953F090091028571
:100CB00006957F09009102850795F709009102C00A
:100CC00009021B000101008032090400000003003A
:100CD0000000092101010001224600040309041655
:100CE000035400680061006E00680020005400F9A1
:100CF000006E0067001A035300540043003800469A
:100D000000200055005300420048004900440016EE
:100D100003320031002D00300033002D003200304E
:100D2000003100390000000000000000000000C099
:100D3000C1C1810140C30103C00280C241C6010696
:100D4000C00780C7410500C5C1C4810440CC010C67
:100D5000C00D80CD410F00CFC1CE810E400A00CA28
:100D6000C1CB810B40C90109C00880C841D8011816
:100D7000C01980D9411B00DBC1DA811A401E00DE98
:100D8000C1DF811F40DD011DC01C80DC411400D487
:100D9000C1D5811540D70117C01680D641D20112A6
:100DA000C01380D3411100D1C1D0811040F0013077
:100DB000C03180F1413300F3C1F28132403600F698
:100DC000C1F7813740F50135C03480F4413C00FC67
:100DD000C1FD813D40FF013FC03E80FE41FA013A26
:100DE000C03B80FB413900F9C1F88138402800E858
:100DF000C1E9812940EB012BC02A80EA41EE012E96
:100E0000C02F80EF412D00EDC1EC812C40E4012486
:100E1000C02580E5412700E7C1E68126402200E2A7
:100E2000C1E3812340E10121C02080E041A00160B5
:100E3000C06180A1416300A3C1A28162406600A697
:100E4000C1A7816740A50165C06480A4416C00AC66
:100E5000C1AD816D40AF016FC06E80AE41AA016A25
:100E6000C06B80AB416900A9C1A88168407800B817
:100E7000C1B9817940BB017BC07A80BA41BE017E95
:100E8000C07F80BF417D00BDC1BC817C40B4017486
:100E9000C07580B5417700B7C1B68176407200B2A7
:100EA000C1B3817340B10171C07080B041500090F6
:100EB000C191815140930153C05280924196015695
:100EC000C057809741550095C1948154409C015C66
:100ED000C05D809D415F009FC19E815E405A009A27
:100EE000C19B815B40990159C05880984188014855
:100EF000C0498089414B008BC18A814A404E008E97
:100F0000C18F814F408D014DC04C808C4144008485
:100F1000C185814540870147C046808641820142A4
:0D0F2000C043808341410081C18081404079
:00000001FF
