:1000000002092E020B86152715271527E4F50DAFDB
:1000100018EF64E17018E519547FA827F6E6FF652C
:10002000106006EF6003020266750E03801DAF18B4
:10003000EF642D702BE519547FA827F6E6FF6510B5
:100040006006EF6003020266750E01E519C4131322
:10005000135401F513E51A540725E0421302026612
:10006000E51824B5700302019524F17003020266BD
:100070002497603624F1700302025E246960030253
:100080000263E519547FA827F6E6FF65106006EFC6
:100090006003020266E50B6008120C71E4F50B8048
:1000A000031209BA750E02020266E50E64036003CC
:1000B000020155E509644B600302014874012508FB
:1000C000F9E43400A827760108F608A601A82786D7
:1000D0000308E6FA08E6F9E519120AFBA8278603E1
:1000E00008E6FA08E6F9900001E51A120B0D9000F7
:1000F00002E51B120B0D900003E51C120B0D900086
:1001000004E51D120B0D900005E51E120B0D120AE1
:1001100039A827860308E6FA08E6F9900006E51FE5
:10012000120B0D900007E520120B0D74082508F541
:1001300008C39516E495154009751101E4F50B7592
:100140000D017509C302024B7F017E00120C2212C1
:100150000A3902024BE50E64016003020266900058
:10016000FDE519F0A3E51AF0A3E51BF0A3E51CF0EB
:10017000A3E51DF0A3E51EF0A3E51FF0120A39AFB9
:100180001F7515008F167509C3E4F508750F017505
:100190000D01020266E50E64036003020266AF0A07
:1001A000D3EF9404748094805003020250E50964F4
:1001B000C3600302024174012508F9E43400A82752
:1001C000760108F608A601A827860308E6FA08E6DD
:1001D000F9E519120AFBA827860308E6FA08E6F9EA
:1001E000900001E51A120B0D900002E51B120B0D99
:1001F000900003E51C120B0D900004E51D120B0D81
:10020000900005E51E120B0D120A39A82786030877
:10021000E6FA08E6F9900006E51F120B0D900007BC
:10022000E520120B0D74082508F508C39516E49512
:10023000154009751101E4F50B750D0175094B8029
:100240000A7F017E00120C22120A39E4F50F801693
:10025000E4F50B7F01FE120C22120A398008751298
:10026000018003E4F50E05270527052722E50F6425
:100270000160030203ACF50F9000FDE064806003B1
:10028000020340A3E064066003020338900100E02B
:1002900024FE601B146040240260030203AC152797
:1002A000A82776017D127BFF7A0C79D90203A990E9
:1002B0000103E0C3941B74809480500A1527A8277B
:1002C0007601E0FD80081527A82776017D1B7BFFBE
:1002D0007A0D79310203A99000FFE070101527A86C
:1002E0002776017D047BFF7A0D799A80469000FF86
:1002F000E0640170101527A82776017D167BFF7A30
:100300000D794C802E9000FFE0640270101527A834
:100310002776017D1A7BFF7A0D796280169000FFA7
:10032000E0640370381527A82776017D167BFF7AD5
:100330000D797C12071A80259000FEE0706E804EC9
:100340009000FDE0701CA3E024F760112404705CB1
:10035000AF10120B2F9000FFE0F510804F120B2F03
:10036000804A9000FDE064817016A3E06406703C52
:100370001527A82776017D467BFF7A0C79EB80292B
:100380009000FDE06421700BA3E0640A701E120C63
:10039000AA80199000FDE064A170111527A82776A6
:1003A000017D087BFF7A0D799212071AE511604CE6
:1003B000E4F512120B2F90010BE0FFA3E090011D5A
:1003C000CFF0A3EFF0E4F511F50FE51270239001E3
:1003D0001DE0FEA3E0FFC390010CE09FFF90010B26
:1003E000E09EFED3EF9405EE940040DE120BE78012
:1003F000D9AD167B017A007901120C05020BE77862
:100400000690010DA90BE013400D63B0037806A31D
:1004100012056F0000801912056FA30000D81100AB
:10042000000063B003780612056F000000000000B2
:1004300013400D63B003780612056F0000008019A9
:1004400012056F000000D81100000063B0037806A9
:1004500012056F00000000000013400D63B0037828
:100460000612056F000000801912056F000000D809
:100470001100000063B003780612056F0000000051
:10048000000013400D63B003780612056F000000F2
:10049000801912056F000000D81100000063B0033E
:1004A000780612056F00000000000013400D63B0D5
:1004B00003780612056F000000801912056F000016
:1004C00000D81100000063B003780612056F000029
:1004D0000000000013400D63B003780612056F00A2
:1004E0000000801912056F000000D81100000063A1
:1004F000B003780612056F00000000000013400DE5
:1005000063B003780612056F000000801912056FB2
:10051000000000D81100000063B003780612056FD8
:1005200000000000000013401163B0037806E000F3
:100530000000000000D935008038D91612056F0080
:10054000D83000000063B003780612056F00000089
:100550008020E0000000D81400000000000000002F
:100560000063B003780612056F0204070204070057
:100570000022000053B0FC12056F12056F12056FC8
:10058000000000000000000000000043B0012274E1
:10059000090000000000001470F700000000007B5C
:1005A000067A017917780C77800205CDE5B05403FF
:1005B000605F6A1313F733C2E1FA00500B000000CA
:1005C000DB0B12070D0205CD7B060205CD00E5B061
:1005D0005403603D6AC2E213FA09E8603400500A2D
:1005E0000000DB0A12070D0205EE7B060000E5B0F5
:1005F0005403601D6AC2E213FA0000500D000000AF
:100600000000DB3212070D0206367B0600000206F0
:1006100036740D98F50A120CD6E50D550C700122B2
:10062000C289D2AF750C00D0E0D0E090026DC082DC
:10063000C08375D00032E5B0540360D56AC2E213BE
:10064000FA0000500D0000000000DB0D12070D0243
:1006500006597B060000000000E5B0540360B26A52
:10066000C2E213FA0000500D0000000000DB0D1282
:10067000070D02067C7B060000000000E5B0540375
:1006800060406AC2E213FA0000500D000000000052
:10069000DB0D12070D02069F7B060000000000E53F
:1006A000B05403601D6AC2E213FA0000500D00004E
:1006B000000000DB3212070D0206E77B0600000295
:1006C00006E7740D98F50A120CD6E50D550C70016D
:1006D00022C289D2AF750C00D0E0D0E090026DC08C
:1006E00082C08375D00032E5B0540360D56AC2E29F
:1006F00013FA180050100000DB0900000012070D6B
:100700000205AC0205AC7B0600000205AC7B0600CE
:10071000EAB2E0FA0000000000221527A827A6058B
:10072000152715271527A827A60308A60208A6013E
:1007300015271527152790010D7480F0750E02E519
:10074000272407F8E66006900000744BF0E52724A4
:1007500006F8E6FF7E00D394007480948050030274
:10076000087C900000E0FD90010EF0ED644B9000DD
:1007700000700574C3F08003744BF0C3EF9408EE6F
:10078000648094804058A8270808E4F6A827080841
:10079000E6C3940874809480502FE5272403F886DC
:1007A0000308E6FA08E6F9A8270808E6FFF58275C7
:1007B0008300120ACEFE740F2FF582E43401F58314
:1007C000EEF0A82708080680C3E527240312088353
:1007D000750B0CE5272406F874F826F68062A82726
:1007E00008087602E5272406F8E62402FFE433FE33
:1007F000A8270808E6C39FEE6480F8748098502A02
:10080000E5272403F88603080806E6188602700127
:100810000614F9120AB5FFA8270808E6240DF58288
:10082000E43401F583EFF00680BAE5272406F8E604
:10083000FF120890E5272406F8E62404F50BE4F6F9
:1008400090010BE0FEA3E0A827A60608F6E50B70D2
:100850000302074DE50E64026002801DA827E6FE34
:1008600008E6FFC390010CE09FFF90010BE09EFEA5
:10087000D3EF9405EE940040D4E4F50BE52724086B
:10088000F52722F87408080826F618E436F67F08DB
:100890001527A827A607152715271527A82774FFAA
:1008A000F608F6A82708087602E5272403F8E616D6
:1008B000603FA8270808E6240DF582E43401F5839B
:1008C000E0FFA827E6FC08E6FDEF6D25E0FFE43336
:1008D000FE749E2FF582740D3EF583ECFFE493FECB
:1008E0007401936FA827A60608F6A82708080680B3
:1008F000B8A827E6FE08E6F4FFEEF4A827F608A657
:1009000007A827E6FE08E6FDA8270808E6FC240D50
:10091000F582E43401F583EDF0EEFF740E2CF582E0
:10092000E43401F583EFF0E5272404F52722787FEE
:10093000E4F6D8FD758127020975020C89E493A3BA
:10094000F8E493A34003F68001F208DFF48029E481
:1009500093A3F85407240CC8C333C4540F4420C8CD
:10096000834004F456800146F6DFE4800B01020464
:100970000810204080900BC7E47E019360BCA3FF69
:10098000543F30E509541FFEE493A360010ECF5499
:10099000C025E060A840B8E493A3FAE493A3F8E488
:1009A00093A3C8C582C8CAC583CAF0A3C8C582C8F4
:1009B000CAC583CADFE9DEE780BE43B20353B1FC98
:1009C000120A2D63B003120A2D63B003120A2D63BD
:1009D000B003120A2D63B003120A2D63B003120A8A
:1009E0002D63B003120A2D63B003120A2D120A2DD3
:1009F0000063B003120A2D120A2D0063B003120A1D
:100A00002D120A2D120A2D000063B003120A2D12B6
:100A10000A2D0063B003120A2D53B0FC120A2D12E6
:100A20000A2D0043B00153B2FC43B1032200000081
:100A300000000000000000002243B20353B1FC6339
:100A4000B003120AA963B003120AA963B003120A21
:100A5000A963B003120AA963B003120AA963B00321
:100A6000120AA963B003120AA9120AA90063B0030B
:100A7000120AA9120AA90063B003120AA963B003FB
:100A8000120AA9120AA90063B003120AA9120AA93C
:100A9000120AA9000053B0FC120AA9120AA90043C5
:100AA000B00153B2FC43B10322000000000000007B
:100AB0000000000022BB010689828A83E0225002E6
:100AC000E722BBFE02E32289828A83E49322BB01F0
:100AD0000CE58229F582E5833AF583E0225006E9A8
:100AE0002582F8E622BBFE06E92582F8E222E582AD
:100AF00029F582E5833AF583E49322BB01068982D6
:100B00008A83F0225002F722BBFE01F322F8BB01D8
:100B10000DE58229F582E5833AF583E8F022500657
:100B2000E92582C8F622BBFE05E92582C8F2221516
:100B3000271527750E0290010D7480F0A3744BF0F9
:100B4000E4A3F0A3F0750B0490010BE0FEA3E0A872
:100B500027A60608F6E50B6028E50E640260028011
:100B60001DA827E6FE08E6FFC390010CE09FFF905A
:100B7000010BE09EFED3EF9405EE940040D7E4F520
:100B80000B0527052722C0E0C0F0C083C082C0D07B
:100B900075D000C000C001C002C003C004C005C0C1
:100BA00006C007C2AF12058FC289D2AFD007D006E8
:100BB000D005D004D003D002D001D000D0D0D08254
:100BC000D083D0F0D0E032010B00010A00010C010B
:100BD000010D0142010B0000090E000000000000A1
:100BE0000000FF01080000D007D006D005D004D0D7
:100BF00003D002D001D000D0D0D082D083D0F0D0AA
:100C0000E0750C01221527A827A60515271527151D
:100C100027A827A60308A60208A601E5272404F5AD
:100C20002722EF1FAC0670011E4C6012000000006E
:100C300000000000000000000000000080E422ED41
:100C400030E005EF42B28004EFF452B2ED30E1043F
:100C5000EF42B122EFF452B122AB07AA06EB1BAE72
:100C60000270011A4E60097FE77E03120C2280EDAC
:100C700022E5B054FC4401F5B043B20353B1FC1279
:100C800003FF53B2FC43B10322120CC47F327E0037
:100C9000120C59120CD043870180FBE5B054FC4480
:100CA00001F5B07D027F07020C3F90010D7480F0CA
:100CB000A3741EF0750B022243B80143B701D2881A
:100CC00043A88122C2AF53B0FC7D017F03020C3FD9
:100CD000120C9B020CB80200061201100100000069
:100CE000083412785612900102030105010900A18F
:100CF00001150026FF007508850195F8090081029D
:100D000085029507090091028503950F090091025C
:100D10008504951F090091028505953F0900910200
:100D20008506957F09009102850795F709009102D4
:100D3000C009021B00010100803209040000000309
:100D400000000009210101000122460016035400A1
:100D5000680061006E00680020005400F9006E0019
:100D600067001A0353005400430038004600200077
:100D70005500530042004800490044001603320069
:100D800031002D00300033002D00320030003100E2
:100D90003900000000000000000004030904000006
:100DA000C0C1C1810140C30103C00280C241C6016C
:100DB00006C00780C7410500C5C1C4810440CC01FD
:100DC0000CC00D80CD410F00CFC1CE810E400A0076
:100DD000CAC1CB810B40C90109C00880C841D801F4
:100DE00018C01980D9411B00DBC1DA811A401E00EE
:100DF000DEC1DF811F40DD011DC01C80DC4114000D
:100E0000D4C1D5811540D70117C01680D641D20173
:100E100012C01380D3411100D1C1D0811040F00124
:100E200030C03180F1413300F3C1F28132403600ED
:100E3000F6C1F7813740F50135C03480F4413C00FC
:100E4000FCC1FD813D40FF013FC03E80FE41FA01F3
:100E50003AC03B80FB413900F9C1F8813840280095
:100E6000E8C1E9812940EB012BC02A80EA41EE016B
:100E70002EC02F80EF412D00EDC1EC812C40E4010C
:100E800024C02580E5412700E7C1E68126402200F5
:100E9000E2C1E3812340E10121C02080E041A001C3
:100EA00060C06180A1416300A3C1A281624066006D
:100EB000A6C1A7816740A50165C06480A4416C00FC
:100EC000ACC1AD816D40AF016FC06E80AE41AA0173
:100ED0006AC06B80AB416900A9C1A88168407800F5
:100EE000B8C1B9817940BB017BC07A80BA41BE01EB
:100EF0007EC07F80BF417D00BDC1BC817C40B4010C
:100F000074C07580B5417700B7C1B6817640720074
:100F1000B2C1B3817340B10171C07080B041500063
:100F200090C191815140930153C0528092419601EA
:100F300056C057809741550095C1948154409C01FB
:100F40005CC05D809D415F009FC19E815E405A00F4
:100F50009AC19B815B40990159C058809841880192
:100F600048C0498089414B008BC18A814A404E006C
:100F70008EC18F814F408D014DC04C808C4144000B
:100F800084C185814540870147C0468086418201F2
:0E0F900042C043808341410081C180814040C6
:00000001FF
